:020000040800F2
:1000000000000824C50F0008550E00085D0E00080A
:10001000650E00086D0E0008750E00080000000057
:100020000000000000000000000000007D0E00083D
:100030008B0E000800000000990E0008A70E0008B3
:1000400015100008151000081510000815100008FC
:1000500015100008151000081510000815100008EC
:1000600015100008151000081510000815100008DC
:1000700015100008151000081510000815100008CC
:1000800015100008151000081510000815100008BC
:1000900015100008151000081510000815100008AC
:1000A000151000081510000815100008151000089C
:1000B000151000081510000815100008151000088C
:1000C000151000081510000815100008151000087C
:1000D000151000081510000815100008151000086C
:1000E0001510000815100008000000001510000889
:1000F000151000081510000815100008151000084C
:10010000151000081510000815100008151000083B
:10011000151000081510000815100008151000082B
:10012000151000081510000815100008151000081B
:10013000151000081510000815100008151000080B
:1001400000000000000000000000000000000000AF
:1001500015100008151000081510000815100008EB
:1001600015100008151000081510000815100008DB
:1001700015100008151000081510000800000000F8
:1001800015100008151000081510000815100008BB
:1001900015100008151000081510000815100008AB
:1001A000151000081510000815100008151000089B
:1001B000151000081510000815100008151000088B
:1001C000151000081510000815100008151000087B
:1001D000151000081510000815100008151000086B
:1001E000151000081510000815100008151000085B
:1001F000151000081510000815100008151000084B
:10020000151000081510000815100008151000083A
:10021000151000081510000815100008151000082A
:100220001510000815100008151000080000000047
:100230001510000815100008000000001510000837
:1002400015100008151000081510000815100008FA
:1002500015100008151000081510000815100008EA
:1002600015100008151000081510000815100008DA
:1002700015100008151000081510000800000000F7
:1002800015100008151000081510000800000000E7
:08029000000000001510000839
:1002980010B5054C237833B9044B13B10448AFF3B8
:1002A80000800123237010BDD0000024000000004E
:1002B800C066000808B5034B1BB103490348AFF3F8
:1002C800008008BD00000000D4000024C0660008BB
:1002D80053B94AB9002908BF00281CBF4FF0FF31A5
:1002E8004FF0FF3000F06AB9ADF1080C6DE904CEAB
:1002F80000F006F8DDF804E0DDE9022304B07047F9
:100308002DE9F047089D0C46002B4ED194468C45AC
:100318008646B2FA82F262D94AB1C2F1200391400C
:1003280020FA03F30CFA02FC194300FA02FE4FEA22
:100338001C471FFA8CF6B1FBF7F44FEA1E4307FB84
:10034800141143EA014304FB06F199420AD91CEB54
:10035800030304F1FF3080F01281994240F20F81CB
:10036800023C6344591A1FFA8EF3B1FBF7F007FBFE
:10037800101143EA014300FB06F69E420AD91CEB22
:10038800030300F1FF3180F0FC809E4240F2F980C7
:10039800634402389B1B40EA044000211DB1D3404E
:1003A8000022C5E90032BDE8F0878B4205D90DB1BE
:1003B800C5E9000100210846F5E7B3FA83F10029F1
:1003C80046D1A34202D39042C0F0F080861A64EB73
:1003D80003030120002DE6D0C5E90063E3E7002A06
:1003E80040F09080A1EB0C044FEA1C481FFA8CF7F0
:1003F8000121B4FBF8F64FEA1E4308FB164443EA12
:10040800044307FB06F0984208D91CEB030306F1E6
:10041800FF3402D2984200F2CD8026461C1A1FFAF9
:100428008EF3B4FBF8F008FB104443EA044300FBE6
:1004380007F79F4208D91CEB030300F1FF3402D2EF
:100448009F4200F2B0802046DB1B40EA0640A5E749
:10045800C1F120068B4022FA06F71F4320FA06FC5A
:1004680004FA01F343EA0C03F44000FA01F8380CEB
:100478004FEA1349B4FBF0FE1FFA87FC00FB1E4449
:1004880049EA04440EFB0CF9A14502FA01F20AD923
:100498003C190EF1FF3A80F08480A14540F281803A
:1004A800AEF1020E3C44A4EB09041FFA83F9B4FB35
:1004B800F0F300FB134449EA044403FB0CFCA44595
:1004C80007D93C1903F1FF3067D2A44565D9023B2F
:1004D8003C4443EA0E40A0FB0293A4EB0C049C426C
:1004E800CE469C4651D34ED055B1B8EB0E0364EBC3
:1004F8000C0404FA06F6CB401E43CC40C5E9006460
:10050800002150E7C2F1200320FA03F10CFA02FCA3
:1005180024FA03F394400C434FEA1C4800FA02FE05
:100528001FFA8CF7B3FBF8F008FB1031230C43EAF1
:10053800014300FB07F1994208D91CEB030300F1C2
:10054800FF362CD299422AD9023863445B1AA4B2E6
:10055800B3FBF8F108FB113344EA034401FB07F34A
:10056800A34208D91CEB040401F1FF3613D2A342BD
:1005780011D902396444E41A41EA004139E70446D2
:10058800F0E6084606E7C845AED2B9EB020E63EBC3
:10059800070C0138A8E73146EDE7034699E73046EE
:1005A800D4E7D6467FE7634402384DE7064623463C
:1005B80008460FE7023E634430E700BF704700BFBC
:1005C80080B59EB000AF2B4A07F16C0392E8030098
:1005D800186004331980284A07F1640392E803007D
:1005E80018600433198000F013FD00F049F800F09A
:1005F8008BF900F0BFF800F009F900F053F9002377
:1006080087F87530002387F87730012387F876302C
:1006180097F87730002B08D001228021174801F085
:1006280095FC002387F8773007E0002280211348E3
:1006380001F08CFC012387F8773097F87630002B8F
:1006480009D001224FF480410C4801F07FFC0023BF
:1006580087F8763008E000224FF48041074801F01F
:1006680075FC012387F876304FF47A7000F062FD4C
:10067800CEE700BFD8660008E0660008000402580C
:1006880080B59CB000AF07F124034C220021184626
:1006980005F0E5FF3B1D20220021184605F0DFFF8D
:1006A800022001F09DFD00233B60304BDB6A2F4A9E
:1006B80023F00103D3622D4BDB6A03F001033B6097
:1006C8002B4B9B692A4A43F440439361284B9B690F
:1006D80003F440433B603B6800BF254B9B6903F430
:1006E8000053B3F5005FF8D101237B624FF4A023D8
:1006F800BB620223BB640223FB6401233B6518230E
:100708007B650223BB650423FB6502233B660C2340
:100718007B660023BB660023FB6607F124031846AB
:1007280001F0A8FD0346002B01D000F0BBF93F23E0
:100738007B600323BB600023FB6000233B61002335
:100748007B610023BB610023FB6100233B623B1DEF
:100758000121184602F0E8F90346002B01D000F009
:10076800A1F900BF7037BD4680BD00BF0004005826
:100778000048025880B500AF1E4B1F4A1A601F4B35
:1007880000221A701D4B80225A701C4BE1229A706D
:100798001A4B0022DA70194B00221A71174B0022EB
:1007A8005A71144B154A5A60124B01221A72114B96
:1007B800134ADA600F4B134A1A610E4B40F2F45297
:1007C8005A610C4800F0DEFD0346002B01D000F012
:1007D80069F9382200210C4805F041FF0A4B212213
:1007E8001A60094B4FF440325A61074B00221A61D4
:1007F80000BF80BD24010024008002404C07002473
:100808007000002410000024EC00002480B500AF24
:10081800224B234A1A60214B4FF4E1325A601F4B96
:1008280000229A601D4B0022DA601C4B00221A61DC
:100838001A4B0C225A61194B00229A61174B00225D
:10084800DA61164B00221A62144B00225A62134BCB
:1008580000229A62114804F01FFB0346002B01D0C6
:1008680000F020F900210D4805F027FB0346002B76
:1008780001D000F017F90021084805F05CFB034699
:10088800002B01D000F00EF9044805F0DDFA03460C
:10089800002B01D000F006F900BF80BDD401002470
:1008A8000048004080B500AF154B164A1A60144B3B
:1008B80009221A71124B0222DA71114B00229A7125
:1008C8000F4B02225A720E4B01229A720C4B0022D5
:1008D800DA720B4B00221A73094B01225A73084B28
:1008E80001229A73064B0022DA73054801F047FB90
:1008F8000346002B01D000F0D5F800BF80BD00BF33
:10090800680200240000084080B58CB000AF07F1F1
:100918001C0300221A605A609A60DA601A615C4B04
:10092800D3F8E0305A4A43F00403C2F8E030584B99
:10093800D3F8E03003F00403BB61BB69544BD3F830
:10094800E030534A43F02003C2F8E030504BD3F86C
:10095800E03003F020037B617B694D4BD3F8E03036
:100968004B4A43F08003C2F8E030494BD3F8E030FB
:1009780003F080033B613B69454BD3F8E030444AC0
:1009880043F00103C2F8E030414BD3F8E03003F004
:100998000103FB60FB683E4BD3F8E0303C4A43F070
:1009A8000203C2F8E0303A4BD3F8E03003F0020318
:1009B800BB60BB68364BD3F8E030354A43F04003A0
:1009C800C2F8E030324BD3F8E03003F040037B60EC
:1009D8007B6800224FF481412E4801F0B7FA0022CB
:1009E80040212D4801F0B2FA4FF40053FB614FF457
:1009F80088133B6200237B6207F11C0319462748D2
:100A080001F0F4F80823FB6100233B6200237B62BA
:100A180007F11C031946224801F0E8F80923FB6195
:100A280000233B6200237B6207F11C0319461B4825
:100A380001F0DCF84FF48143FB6101233B620023A2
:100A48007B620023BB6207F11C031946114801F0C1
:100A5800CDF84023FB6101233B6200237B62002326
:100A6800BB6207F11C0319460B4801F0BFF880234D
:100A7800FB6100233B6200237B6207F11C031946DC
:100A8800054801F0B3F800BF3037BD4680BD00BF50
:100A9800004402580004025800180258000802587E
:100AA8000014025880B400AF72B600BF00BFFDE763
:100AB80080B483B000AF0A4BD3F8F430084A43F04F
:100AC8000203C2F8F430064BD3F8F43003F0020303
:100AD8007B607B6800BF0C37BD465DF8047B7047C0
:100AE8000044025880B58EB000AF786007F1240347
:100AF80000221A605A609A60DA601A617B681B6883
:100B0800594A934240F0AB80584BD3F8D830574AF3
:100B180043F40043C2F8D830544BD3F8D83003F428
:100B280000433B623B6A514BD3F8D8304F4A43F4F9
:100B38008033C2F8D8304D4BD3F8D83003F4803323
:100B4800FB61FB69494BD3F8D830484A43F400337A
:100B5800C2F8D830454BD3F8D83003F40033BB6122
:100B6800BB69424BD3F8E030404A43F00403C2F873
:100B7800E0303E4BD3F8E03003F004037B617B693F
:100B88003A4BD3F8E030394A43F00103C2F8E03079
:100B9800364BD3F8E03003F001033B613B69334B3C
:100BA800D3F8E030314A43F00203C2F8E0302F4B6B
:100BB800D3F8E03003F00203FB60FB682B4BD3F85B
:100BC800E0302A4A43F04003C2F8E030274BD3F81C
:100BD800E03003F04003BB60BB6832237B62022332
:100BE800BB620023FB6200233B630B237B6307F19B
:100BF800240319461E4800F0F9FF86237B6202236E
:100C0800BB620023FB6200233B630B237B6307F17A
:100C180024031946174800F0E9FF4FF400537B629C
:100C28000223BB620023FB6200233B630B237B632D
:100C380007F124031946104800F0D8FF4FF4205359
:100C48007B620223BB620023FB6200233B630B230E
:100C58007B6307F124031946084800F0C7FF00BF6B
:100C68003837BD4680BD00BF0080024000440258AE
:100C780000080258000002580004025800180258E0
:100C880080B5BAB000AF786007F1D40300221A60CB
:100C98005A609A60DA601A6107F11003C0220021D5
:100CA800184605F0DCFC7B681B68274A934246D14E
:100CB8004FF002024FF00003C7E904230023C7F8EE
:100CC800883007F11003184602F0BAFA0346002BE1
:100CD80001D0FFF7E7FE1D4BD3F8E8301B4A43F479
:100CE8008023C2F8E830194BD3F8E83003F48023A6
:100CF800FB60FB68154BD3F8E030144A43F002035D
:100D0800C2F8E030114BD3F8E03003F00203BB60C7
:100D1800BB684FF44063C7F8D4300223C7F8D83013
:100D28000023C7F8DC300023C7F8E0300723C7F8F2
:100D3800E43007F1D4031946054800F057FF00BF17
:100D4800E837BD4680BD00BF004800400044025857
:100D58000004025880B5BAB000AF786007F1D40338
:100D680000221A605A609A60DA601A6107F110036B
:100D7800C0220021184605F072FC7B681B68304AC7
:100D8800934259D14FF480224FF00003C7E904235E
:100D98004FF48013C7F8983007F11003184602F093
:100DA8004FFA0346002B01D0FFF77CFE01F052FA00
:100DB800244BD3F8E030234A43F00103C2F8E03073
:100DC800204BD3F8E03003F00103FB60FB684FF4DD
:100DD800E853C7F8D4300223C7F8D8300023C7F83F
:100DE800DC300023C7F8E0300A23C7F8E43007F105
:100DF800D4031946144800F0F9FE4FF40073C7F8FD
:100E0800D4300023C7F8D8300023C7F8DC3007F106
:100E1800D40319460C4800F0E9FE0A4BD3F8D83041
:100E2800084A43F00063C2F8D830064BD3F8D830EC
:100E380003F00063BB60BB6800BFE837BD4680BDF8
:100E480000000840004402580000025880B400AF77
:100E580000BFFDE780B400AF00BFFDE780B400AF7E
:100E680000BFFDE780B400AF00BFFDE780B400AF6E
:100E780000BFFDE780B400AF00BFBD465DF8047B4E
:100E8800704780B400AF00BFBD465DF8047B704773
:100E980080B400AF00BFBD465DF8047B704780B5E5
:100EA80000AF00F027F900BF80BD000080B400AF9C
:100EB800374BD3F88830364A43F47003C2F8883089
:100EC800344B1B6803F00F03062B07D8314B1B6804
:100ED80023F00F032F4A43F0070313602E4B1B68C0
:100EE8002D4A43F0010313602B4B00221A612A4B51
:100EF8001A682949294B13400B60264B1B6803F0DD
:100F08000803002B07D0234B1B6823F00F03214A4B
:100F180043F007031360204B00229A611E4B002206
:100F2800DA611D4B00221A621B4B1D4A9A621A4B4A
:100F38001C4ADA62184B1C4A1A63174B00225A6380
:100F4800154B194A9A63144B0022DA63124B164A5E
:100F58001A64114B00225A640F4B1B680E4A23F483
:100F6800802313600C4B00221A66104B1A68104B32
:100F78001340B3F1005F02D20E4B01221A600E4BF0
:100F880043F2D2021A6000BFBD465DF8047B704789
:100F980000ED00E000200052004402587FEDF6EA20
:100FA800000202020000FF01800201010010005C43
:100FB8000000FFFF0881005100400052DFF834D0E4
:100FC800FFF774FF0C480D490D4A002302E0D4587E
:100FD800C4500433C4188C42F9D30A4A0A4C00237B
:100FE80001E013600432A242FBD305F041FBFFF796
:100FF800E7FA7047000008240000002410000024CD
:1010080030670008D000002458070024FEE70000DD
:1010180080B582B000AF032000F082F901F03AFFFA
:101028000246154B9B691B0A03F00F031349CB5C5F
:1010380003F01F0322FA03F37B600F4B9B6903F055
:101048000F030E4AD35C03F01F037A6822FA03F3F6
:101058000B4A13600B4A7B681360002000F014F8F9
:101068000346002B01D0012302E0FFF721FD0023F6
:1010780018460837BD4680BD00440258E866000897
:10108800040000240000002480B582B000AF78601E
:10109800154B1B78002B01D1012321E0134B1A6853
:1010A800114B1B7819464FF47A73B3FBF1F3B2FB7B
:1010B800F3F3184600F059F90346002B01D0012339
:1010C8000EE07B680F2B0AD8002279684FF0FF30BA
:1010D80000F031F9064A7B681360002300E0012321
:1010E80018460837BD4680BD0C00002400000024C7
:1010F8000800002480B400AF064B1B781A46064B44
:101108001B681344044A136000BFBD465DF8047BA6
:10111800704700BF0C0000245407002480B400AFBF
:10112800034B1B681846BD465DF8047B704700BF3B
:101138005407002480B584B000AF7860FFF7EEFF55
:10114800B8607B68FB60FB68B3F1FF3F05D00A4BD2
:101158001B781A46FB681344FB6000BFFFF7DEFFED
:101168000246BB68D31AFA689A42F7D800BF00BF94
:101178001037BD4680BD00BF0C00002480B400AF0E
:10118800034B1B681B0C1846BD465DF8047B704773
:101198000010005C80B483B000AF7860064B5B68D9
:1011A80023F4600204497B6813434B6000BF0C378B
:1011B800BD465DF8047B70470004005880B485B0D4
:1011C80000AF78607B6803F00703FB600B4BDB68BC
:1011D800BB60BA684FF6FF031340BB60FB681A0296
:1011E800BB681A43064B1343BB60044ABB68D36011
:1011F80000BF1437BD465DF8047B704700ED00E082
:101208000000FA0580B400AF044BDB681B0A03F04A
:1012180007031846BD465DF8047B704700ED00E003
:1012280080B483B000AF03463960FB80B7F906305D
:10123800002B0ADB3B68DAB20C49B7F90630120119
:10124800D2B20B4483F800230AE03B68DAB20849BB
:10125800FB8803F00F03043B1201D2B20B441A7649
:1012680000BF0C37BD465DF8047B704700E100E025
:1012780000ED00E080B489B000AFF860B9607A6032
:10128800FB6803F00703FB61FB69C3F10703042B49
:1012980028BF0423BB61FB690433062B02D9FB6911
:1012A800033B00E000237B614FF0FF32BB6902FA89
:1012B80003F3DA43BB681A407B699A404FF0FF3169
:1012C8007B6901FA03F3D9437B680B401343184643
:1012D8002437BD465DF8047B7047000080B582B0B6
:1012E80000AF78607B68013BB3F1807F01D30123B5
:1012F8000FE00A4A7B68013B53600F214FF0FF3033
:10130800FFF78EFF054B00229A60044B07221A60F4
:10131800002318460837BD4680BD00BF10E000E036
:1013280080B582B000AF78607868FFF747FF00BFEC
:101338000837BD4680BD80B586B000AF0346B960AA
:101348007A60FB81FFF75EFF78617A68B96878692F
:10135800FFF790FF0246B7F90E3011461846FFF71F
:101368005FFF00BF1837BD4680BD80B582B000AFB3
:1013780078607868FFF7B2FF034618460837BD461D
:1013880080BD000080B584B000AF78607B68002B1A
:1013980001D10123E3E07B68D3F88430002B06D128
:1013A8007B682322C3F884207868FFF79BFB6E4B89
:1013B800D3F8F4306C4A43F00203C2F8F4306A4BB5
:1013C800D3F8F43003F00203BB60BB687B681B7A78
:1013D800002B03D10020FFF7DDFE03E04FF40000EF
:1013E800FFF7D8FE614B5B687B681B6803F5805389
:1013F8001B687A68126843F0010302F58052136093
:10140800FFF78CFEF86011E0FFF788FE0246FB68E4
:10141800D31AB3F5FA7F09D97B680422C3F8882068
:101428007B68E022C3F88420012398E07B681B686E
:1014380003F580531B6803F00103002BE4D178689F
:1014480000F09EF801F0A0FE0346494AA2FB0323E0
:101458009A0C7B681B68013AC3F8DC20786800F0B6
:1014680081FA7B681B6803F58053D3F8003123F4B5
:10147800E0137A68126843F4002302F58052C2F838
:1014880000317B685B6903F00303002B09D07B689C
:101498000122C3F888207B68E022C3F88420012356
:1014A8005DE07B681B6803F58053D3F80821314B56
:1014B80013407A68526951007A6812680B4302F542
:1014C8008052C2F80831786800F0E9FA786800F0CC
:1014D8002FFB7B685B6805331B781A027B685B68A7
:1014E80004331B7819467B681B680A43C3F800233A
:1014F8007B685B6803331B781A067B685B6802337A
:101508001B781B041A437B685B6801331B781B023A
:101518001A437B685B681B7819467B681B680A431B
:10152800C3F804237B681B68D3F80C177B681A6818
:10153800114B0B43C2F80C377B681B68D3F81017A4
:101548007B681A680D4B0B43C2F810377B68002282
:10155800C3F888207B681022C3F88420002318462B
:101568001037BD4680BD00BF004402580004005833
:1015780083DE1B430180FFFF6000020C00C0200CCB
:1015880080B584B000AF78607B681B68D3F8003200
:10159800FB60FB6823F47063FB6001F0F5FDB86045
:1015A800BB681A4A934204D8FB6843F40073FB6093
:1015B80022E0BB68164A934204D2FB6843F44073A6
:1015C800FB6019E0BB68134A934215D9BB68124AFD
:1015D800934204D8FB6843F48073FB600CE0BB685B
:1015E8000E4A934204D8FB6843F48063FB6003E02F
:1015F800FB6843F4A063FB607B681B68FA68C3F868
:10160800002200BF1037BD4680BD00BFBF0E1602C6
:1016180000879303FFE0F5057FD1F0087FB2E60E5F
:1016280080B485B000AF786039603B689A683B68E1
:101638001B681A433B681B79DB061A433B681B7B14
:10164800DB051A433B685B7B9B051A433B689B7B26
:101658005B051A433B68DB7B1B0513433A68127C26
:10166800002A02D14FF4002200E0002213433A6816
:10167800527C002A02D14FF4003200E000221A43C3
:101688003B689B7C1B041A433B685B691A433B68B5
:101698009B691A433B681B7F1B031A433B685B7FAC
:1016A800DB0213433A68927F002A02D14FF480622A
:1016B80000E000221A433B68DB7F5B0213433A6871
:1016C80092F82020002A02D14FF4807200E0002214
:1016D8001A433B685B6A1A433B6893F828301B013E
:1016E8001A433B68DB6A1343FB607B681B681A6814
:1016F800564B13407A681268F9680B4313603B68CD
:10170800DB6B5A063B6893F838301B061A433B6874
:1017180093F830309B041A433B6893F831305B04EC
:1017280013433A6892F83220002A02D14FF48032EB
:1017380000E000221A433B685B6B1343FB607B6845
:101748001B685A68424B13407A681268F9680B4361
:1017580053603B6893F840301A023B685B6C134354
:10176800FB607B681B68DA683A4B13407A6812683A
:10177800F9680B43D3603B6893F854305A003B68D0
:101788001B6D13433A6892F84C20002A01D180223D
:1017980000E000221A433B689B6C1B041343FB6068
:1017A8007B681B681A6F4FF60D7313407A681268CE
:1017B800F9680B4313673B6893F856301A463B6841
:1017C80093F855305B001343FB607B681B68D3F8C4
:1017D800903023F003017B681B68FA680A43C3F85A
:1017E80090207B681B68D3F8003D23F072013B68AA
:1017F8009A6D7B681B680A43C3F8002D3B68DB6D54
:101808003A6892F86020002A01D1402200E00022C4
:101818001A433B6893F861301B011A433B6893F8FD
:101828006230DB001343FB607B681B68D3F8303DF4
:1018380023F07B017B681B68FA680A43C3F8302DE4
:1018480000BF1437BD465DF8047B704783800400F1
:101858000080F8C0F0FEFFFF80B485B000AF78606C
:1018680039607B681B6803F580531A68384B13404E
:101878003A6811687A6812680B4302F5805213605F
:101888003B681B791A033B689B681A433B681B7BC0
:10189800DB031343FB607B681B6803F580535A68BE
:1018A8002C4B13407A681268F9680B4302F5805292
:1018B80053603B685B7B1A043B681B6A1343FB60FD
:1018C8007B681B6803F58053D3F80021224B134033
:1018D8007A681268F9680B4302F58052C2F8003141
:1018E8003B681A693B681B7D1B011A433B685B7F99
:1018F8001B031343FB607B681B6803F58053D3F815
:101908000421164B13407A681268F9680B4302F5F4
:101918008052C2F804313B681B7FDA073B689B6939
:101928001343FB607B681B6803F58053D3F80821D9
:101938000B4B13407A681268F9680B4302F5805222
:10194800C2F8083100BF1437BD465DF8047B704704
:10195800FD87FFFFFE2FFFFF00C0FEFFEFEFC0FF78
:10196800FFFFC07F80B5A4B000AF7860012387F87F
:101978003B3000233B65002387F84930002387F874
:101988004B30012387F83030012387F85E3001237C
:1019980087F83A30002387F85430012387F88C30D1
:1019A8004FF400537B64002387F864300023BB6640
:1019B800002387F88D30002387F88E304FF4C363F7
:1019C8003B66002387F8383000237B63012387F8C0
:1019D8003D30002387F83E30002387F84830002345
:1019E800FB6700237B670023BB65002387F86C3007
:1019F800002387F88230012387F84A302023C7F86C
:101A08008830012387F84C30002387F85D304FF089
:101A18004053FB624FF480433B64002387F839301E
:101A28000223C7F88430002387F88030002387F822
:101A38008130002387F85C30012387F83C3000238D
:101A48003B67012387F8783007F12C03194678683B
:101A5800FFF7E6FD01233B7301233B610023BB60D5
:101A6800002387F8243000237B7500233B754FF44F
:101A780000133B6200233B774FF40013BB61002344
:101A880087F825304FF40673BB6207F1080319463F
:101A98007868FFF7E1FE00BF9037BD4680BD80B48F
:101AA80085B000AF78600023FB601DE07B68D968D3
:101AB800FA6813465B001344DB000B44BB60BB6849
:101AC80000221A60BB6800225A60BB6800229A6034
:101AD800BB680022DA60B9687B68FA68063243F8A6
:101AE8002210FB680133FB60FB68032BDED97B689F
:101AF80000229A627B681B6803F580531A46032309
:101B0800C2F82C317B68DA687B681B6803F5805360
:101B1800C3F814217B68DA687B681B6803F5805377
:101B2800C3F8202100BF1437BD465DF8047B704719
:101B380080B485B000AF78600023FB6023E07B6849
:101B48001969FA6813465B001344DB000B44BB6059
:101B5800BB6800221A60BB6800225A60BB6800227A
:101B68009A60BB680022DA60BB6800221A61BB6811
:101B780000225A61B9687B68FA68123243F8221069
:101B8800FB680133FB60FB68032BD8D97B68002214
:101B9800DA657B6800221A667B6800229A667B6891
:101BA8000022DA667B6800229A657B681B6803F569
:101BB80080531A460323C2F830317B681A697B6860
:101BC8001B6803F58053C3F81C217B681B6903F16C
:101BD80048027B681B6803F58053C3F8282100BFBF
:101BE8001437BD465DF8047B7047000080B489B0A7
:101BF80000AF786039600023FB61894B7B6194E119
:101C08003B681A680121FB6901FA03F313403B6141
:101C18003B69002B00F086813B685B6803F0030397
:101C2800012B05D03B685B6803F00303022B30D11E
:101C38007B689B68BB61FB695B00032202FA03F3C4
:101C4800DB43BA691340BB613B68DA68FB695B0038
:101C580002FA03F3BA691343BB617B68BA699A60F5
:101C68007B685B68BB610122FB6902FA03F3DB4313
:101C7800BA691340BB613B685B681B0903F001024A
:101C8800FB6902FA03F3BA691343BB617B68BA695B
:101C98005A603B685B6803F00303032B17D07B682B
:101CA800DB68BB61FB695B00032202FA03F3DB43D9
:101CB800BA691340BB613B689A68FB695B0002FA2A
:101CC80003F3BA691343BB617B68BA69DA603B689E
:101CD8005B6803F00303022B23D1FB69DA087B68F6
:101CE800083253F82230BB61FB6903F007039B00FD
:101CF8000F2202FA03F3DB43BA691340BB613B6866
:101D08001A69FB6903F007039B0002FA03F3BA6937
:101D18001343BB61FB69DA087B680832B96943F889
:101D280022107B681B68BB61FB695B00032202FA17
:101D380003F3DB43BA691340BB613B685B6803F09C
:101D48000302FB695B0002FA03F3BA691343BB6140
:101D58007B68BA691A603B685B6803F44033002B00
:101D680000F0E0802F4BD3F8F4302E4A43F0020302
:101D7800C2F8F4302B4BD3F8F43003F00203FB60C5
:101D8800FB68294AFB699B08023352F82330BB6180
:101D9800FB6903F003039B000F2202FA03F3DB4302
:101DA800BA691340BB617B68204A934252D07B6872
:101DB8001F4A934231D07B681E4A93422BD07B68DE
:101DC8001D4A934225D07B681C4A93421FD07B68EA
:101DD8001B4A934219D07B681A4A934213D07B68F6
:101DE800194A93420DD07B68184A934207D07B6802
:101DF800174A934201D109232DE00A232BE0082337
:101E080029E0072327E0062325E0052323E0042310
:101E180021E003231FE002231DE001231BE000BF94
:101E2800800000580044025800040058000002587E
:101E38000004025800080258000C0258001002580A
:101E48000014025800180258001C025800200258BA
:101E5800002402580023FA6902F00302920093401A
:101E6800BA691343BB613849FB699B080233BA69F5
:101E780041F823204FF0B0431B68BB613B69DB434B
:101E8800BA691340BB613B685B6803F48013002B9D
:101E980003D0BA693B691343BB614FF0B042BB69D9
:101EA80013604FF0B0435B68BB613B69DB43BA69C1
:101EB8001340BB613B685B6803F40013002B03D03D
:101EC800BA693B691343BB614FF0B042BB695360C9
:101ED8007B695B68BB613B69DB43BA691340BB61E3
:101EE8003B685B6803F40033002B03D0BA693B6995
:101EF8001343BB617B69BA695A607B691B68BB6124
:101F08003B69DB43BA691340BB613B685B6803F418
:101F18008033002B03D0BA693B691343BB617B69EB
:101F2800BA691A60FB690133FB613B681A68FB698F
:101F380022FA03F3002B7FF463AE00BF00BF2437FF
:101F4800BD465DF8047B70470004005880B483B038
:101F580000AF78600B467B8013467B707B78002B44
:101F680003D07A887B689A6103E07B881A047B68CF
:101F78009A6100BF0C37BD465DF8047B704780B599
:101F880086B002AF78607B68002B01D10123FEE0A8
:101F98007B6893F89534DBB2002B06D17B6800226E
:101FA80083F894247868FEF7D5FE7B68032283F8CB
:101FB80095247B681B68184604F0BCF87B68186891
:101FC8007B681A7C8DF8002004330ECB04F040F8AF
:101FD8000346002B05D07B68022283F89524012351
:101FE800D5E07B681B680021184604F0B4F8034666
:101FF800002B05D07B68022283F895240123C6E0D4
:102008000023FB734AE0FA7B79681346DB0013442C
:102018009B000B44153301221A70FA7B796813462A
:10202800DB0013449B000B441433FA7B1A70FA7BD1
:10203800FB7B98B279681346DB0013449B000B4482
:102048002E3302461A80FA7B79681346DB00134464
:102058009B000B44183300221A70FA7B79681346E8
:10206800DB0013449B000B441C3300221A60FA7BEC
:1020780079681346DB0013449B000B44203300228D
:102088001A60FA7B79681346DB0013449B000B4403
:10209800243300221A60FB7B0133FB737B681B79B6
:1020A800FA7B9A42AFD30023FB7344E0FA7B79684A
:1020B8001346DB0013449B000B4403F25523002214
:1020C8001A70FA7B79681346DB0013449B000B44B3
:1020D80003F51573FA7B1A70FA7B79681346DB00EF
:1020E80013449B000B4403F5167300221A70FA7B05
:1020F80079681346DB0013449B000B4403F5177300
:1021080000221A60FA7B79681346DB0013449B00AF
:102118000B4403F5187300221A60FA7B796813469A
:10212800DB0013449B000B4403F5197300221A606B
:10213800FB7B0133FB737B681B79FA7B9A42B5D32F
:102148007B6818687B681A7C8DF8002004330ECBF6
:1021580004F04EF80346002B05D07B68022283F872
:102168009524012313E07B6800225A747B680122BE
:1021780083F895247B681B7B012B02D1786800F0DB
:102188000BF87B681B68184604F009FA0023184608
:102198001037BD4680BD000080B485B000AF7860C0
:1021A8007B681B68FB607B680122C3F8D8247B68C6
:1021B800002283F8CC24FB689B6943F00062FB682B
:1021C8009A61FB685A6D054B1343FA6853650023FF
:1021D80018461437BD465DF8047B704703000010AD
:1021E80080B584B000AF7860194BDB6803F0040356
:1021F800042B0AD0164BDB6803F007037A689A426F
:1022080001D001231FE000231DE0114BDB6823F000
:1022180007020F497B681343CB60FEF77FFFF86026
:1022280009E0FEF77BFF0246FB68D31AB3F57A7F15
:1022380001D9012307E0064B5B6803F40053B3F5AB
:10224800005FEED1002318461037BD4680BD00BFA1
:102258000048025880B400AF054BDB68044A43F0DD
:102268008073D36000BFBD465DF8047B704700BF34
:102278000048025880B58CB000AF78607B68002BAE
:1022880002D1012300F048BC7B681B6803F00103FE
:10229800002B00F08880994B1B6903F03803FB6220
:1022A800964B9B6ABB62FB6A102B07D0FB6A182B04
:1022B80011D1BB6A03F00303022B0CD18F4B1B68AF
:1022C80003F40033002B6DD07B685B68002B69D169
:1022D800012300F021BC7B685B68B3F5803F06D121
:1022E800864B1B68854A43F4803313602EE07B6875
:1022F8005B68002B0CD1814B1B68804A23F4803328
:1023080013607E4B1B687D4A23F4802313601DE015
:102318007B685B68B3F5A02F0CD1784B1B68774AB4
:1023280043F480231360754B1B68744A43F480336D
:1023380013600BE0714B1B68704A23F48033136001
:102348006E4B1B686D4A23F4802313607B685B68BF
:10235800002B13D0FEF7E2FE786208E0FEF7DEFEFF
:1023680002467B6AD31A642B01D90323D4E3634B57
:102378001B6803F40033002BF0D014E0FEF7CEFE08
:10238800786208E0FEF7CAFE02467B6AD31A642B1D
:1023980001D90323C0E3594B1B6803F40033002B16
:1023A800F0D100E000BF7B681B6803F00203002B3C
:1023B80000F0CA80514B1B6903F038033B624F4B56
:1023C8009B6AFB613B6A002B07D03B6A182B56D1EE
:1023D800FB6903F00303002B51D1484B1B6803F042
:1023E8000403002B05D07B68DB68002B01D1012397
:1023F80092E3424B1B6823F019027B68DB683F4974
:1024080013430B60FEF78AFE786208E0FEF786FE4B
:1024180002467B6AD31A022B01D903237CE3374B8C
:102428001B6803F00403002BF0D0FEF7A7FE034659
:1024380041F20302934217D87B681B69402B08D1ED
:102448002E4B5B6823F47C332C4A43F400335360EF
:102458007AE02A4B5B6823F47C327B681B691B0398
:10246800264913434B606FE0244B5B6823F0FE4220
:102478007B681B691B06214913434B6064E07B683A
:10248800DB68002B47D01D4B1B6823F019027B68C3
:10249800DB681A4913430B60FEF740FE786208E0D8
:1024A800FEF73CFE02467B6AD31A022B01D90323AE
:1024B80032E3124B1B6803F00403002BF0D0FEF745
:1024C8005DFE034641F20302934219D87B681B69FB
:1024D800402B08D1094B5B6823F47C33074A43F44B
:1024E8000033536030E0054B5B6823F47C327B6833
:1024F8001B691B03014913434B6025E00044025844
:102508009A4B5B6823F0FE427B681B691B06974960
:1025180013434B6018E0954B1B68944A23F0010362
:102528001360FEF7FBFD786208E0FEF7F7FD024650
:102538007B6AD31A022B01D90323EDE28B4B1B686C
:1025480003F00403002BF0D17B681B6803F0100331
:10255800002B00F0A980854B1B6903F03803BB6191
:10256800824B9B6A7B61BB69082B07D0BB69182B20
:102578003AD17B6903F00303012B35D17B4B1B68F0
:1025880003F48073002B05D07B68DB69802B01D0B6
:102598000123C1E2FEF7F2FD034641F20302934232
:1025A80017D87B681B6A202B08D1704B5B6823F017
:1025B800F8436E4A43F08043536075E06B4B5B68A9
:1025C80023F0F8427B681B6A9B06684913434B60FB
:1025D8006AE0664BDB6823F07C527B681B6A1B064B
:1025E80062491343CB605FE07B68DB69002B42D014
:1025F8005E4B1B685D4A43F080031360FEF78EFD57
:10260800786208E0FEF78AFD02467B6AD31A022B3D
:1026180001D9032380E2554B1B6803F48073002B18
:10262800F0D0FEF7ABFD034641F20302934217D800
:102638007B681B6A202B08D14C4B5B6823F0F8435E
:102648004A4A43F0804353602EE0484B5B6823F0CE
:10265800F8427B681B6A9B06444913434B6023E09E
:10266800424BDB6823F07C527B681B6A1B063F49A0
:102678001343CB6018E03D4B1B683C4A23F08003B2
:102688001360FEF74BFD786208E0FEF747FD02464F
:102698007B6AD31A022B01D903233DE2334B1B6813
:1026A80003F48073002BF0D17B681B6803F00803E8
:1026B800002B36D07B685B69002B19D02B4B5B6FE6
:1026C8002A4A43F001035367FEF728FD786208E0C1
:1026D800FEF724FD02467B6AD31A022B01D9032395
:1026E8001AE2224B5B6F03F00203002BF0D018E0D4
:1026F8001E4B5B6F1D4A23F001035367FEF70EFD67
:10270800786208E0FEF70AFD02467B6AD31A022BBC
:1027180001D9032300E2154B5B6F03F00203002B82
:10272800F0D17B681B6803F02003002B39D07B684D
:102738009B69002B1CD00D4B1B680C4A43F480533B
:102748001360FEF7EBFC786208E0FEF7E7FC024650
:102758007B6AD31A022B01D90323DDE1034B1B68E3
:1027680003F40053002BF0D01BE000BF00440258D4
:102778009B4B1B689A4A23F480531360FEF7CEFCE8
:10278800786208E0FEF7CAFC02467B6AD31A022B7D
:1027980001D90323C0E1924B1B6803F40053002BBB
:1027A800F0D17B681B6803F00403002B00F08180E4
:1027B8008C4B1B688B4A43F480731360FEF7AEFCA6
:1027C800786208E0FEF7AAFC02467B6AD31A642BFB
:1027D80001D90323A0E1834B1B6803F48073002B0A
:1027E800F0D07B689B68012B06D17D4B1B6F7C4A20
:1027F80043F0010313672DE07B689B68002B0CD125
:10280800774B1B6F764A23F001031367744B1B6FDA
:10281800734A23F0040313671CE07B689B68052B4D
:102828000CD16F4B1B6F6E4A43F0040313676C4B5C
:102838001B6F6B4A43F0010313670BE0684B1B6F78
:10284800674A23F001031367654B1B6F644A23F043
:10285800040313677B689B68002B15D0FEF75EFCAA
:1028680078620AE0FEF75AFC02467B6AD31A41F204
:102878008832934201D903234EE1594B1B6F03F071
:102888000203002BEED014E0FEF748FC78620AE061
:10289800FEF744FC02467B6AD31A41F2883293421F
:1028A80001D9032338E14E4B1B6F03F00203002BC1
:1028B800EED17B685B6A002B00F02D81484B1B69C9
:1028C80003F03803182B00F0BD807B685B6A022B8D
:1028D80040F09E80424B1B68414A23F0807313608E
:1028E800FEF71CFC786208E0FEF718FC02467B6ADB
:1028F800D31A022B01D903230EE1394B1B6803F0CD
:102908000073002BF0D1364B9A6A374B13407A6824
:10291800916A7A68D26A12010A43314913438B6279
:102928007B681B6B013BC3F308027B685B6B013B55
:102938005B029BB21A437B689B6B013B1B0403F44D
:10294800FE031A437B68DB6B013B1B0603F0FE4367
:10295800234913430B63224BDB6A214A23F001030B
:10296800D3621F4B5A6B214B13407A68926CD2008A
:102978001B4913434B631A4BDB6A23F00C027B6839
:102988001B6C17491343CB62154BDB6A23F0020219
:102998007B685B6C12491343CB62114BDB6A104AAC
:1029A80043F48033D3620E4BDB6A0D4A43F40033A1
:1029B800D3620B4BDB6A0A4A43F48023D362084B89
:1029C800DB6A074A43F00103D362054B1B68044ADC
:1029D80043F080731360FEF7A1FB786211E000BF3B
:1029E80000440258004802580CFCFFFF0700FFFF94
:1029F800FEF794FB02467B6AD31A022B01D9032304
:102A08008AE0474B1B6803F00073002BF0D082E08C
:102A1800434B1B68424A23F080731360FEF77EFB2A
:102A2800786208E0FEF77AFB02467B6AD31A022B2B
:102A380001D9032370E03A4B1B6803F00073002BA5
:102A4800F0D168E0364B9B6A3B61354B1B6BFB60F2
:102A58007B685B6A012B31D03B6903F003027B681A
:102A68009B6A9A422AD13B691B0903F03F027B68A3
:102A7800DB6A9A4222D1FB68C3F308027B681B6BAE
:102A8800013B9A421AD1FB685B0A03F07F027B681C
:102A98005B6B013B9A4211D1FB681B0C03F07F0270
:102AA8007B689B6B013B9A4208D1FB681B0E03F0C5
:102AB8007F027B68DB6B013B9A4201D001232BE04C
:102AC800174B5B6BDB08C3F30C033B617B689B6CA8
:102AD8003A699A421FD0124BDB6A114A23F001036C
:102AE800D362FEF71BFB786200BFFEF717FB0246B6
:102AF8007B6A9342F9D00A4B5A6B0A4B13407A68A7
:102B0800926CD200064913434B63054BDB6A044AB7
:102B180043F00103D362002318463037BD4680BD19
:102B2800004402580700FFFF80B586B000AF786008
:102B380039607B68002B01D101239CE18A4B1B681B
:102B480003F00F033A689A4210D9874B1B6823F0A9
:102B58000F0285493B6813430B60834B1B6803F0E6
:102B68000F033A689A4201D0012384E17B681B680D
:102B780003F00403002B10D07B681A697B4B9B6918
:102B880003F070039A4208D9784B9B6923F07002CE
:102B98007B681B69754913438B617B681B6803F06D
:102BA8000803002B10D07B685A69704BDB6903F06F
:102BB80070039A4208D96D4BDB6923F070027B6879
:102BC8005B696A491343CB617B681B6803F0100398
:102BD800002B10D07B689A69644BDB6903F4E063CF
:102BE8009A4208D9614BDB6923F4E0627B689B69F0
:102BF8005E491343CB617B681B6803F02003002BFD
:102C080010D07B68DA69594B1B6A03F070039A424B
:102C180008D9564B1B6A23F070027B68DB6953495D
:102C280013430B627B681B6803F00203002B10D070
:102C38007B68DA684D4B9B6903F00F039A4208D909
:102C48004A4B9B6923F00F027B68DB6847491343B3
:102C58008B617B681B6803F00103002B55D0434B45
:102C68009B6923F470627B689B68404913438B61BE
:102C78007B685B68022B07D13C4B1B6803F400336D
:102C8800002B21D10123F6E07B685B68032B07D179
:102C9800364B1B6803F00073002B15D10123EAE0C3
:102CA8007B685B68012B07D1304B1B6803F480738A
:102CB800002B09D10123DEE02C4B1B6803F0040331
:102CC800002B01D10123D6E0284B1B6923F0070212
:102CD8007B685B68254913430B61FEF71FFA78612F
:102CE8000AE0FEF71BFA02467B69D31A41F28832E2
:102CF800934201D90323BEE01C4B1B6903F0380241
:102D08007B685B68DB009A42EBD17B681B6803F049
:102D18000203002B10D07B68DA68144B9B6903F020
:102D28000F039A4208D2114B9B6923F00F027B686C
:102D3800DB680E4913438B610B4B1B6803F00F03D1
:102D48003A689A4214D2084B1B6823F00F020649CE
:102D58003B6813430B60044B1B6803F00F033A688E
:102D68009A4205D0012386E0002000520044025810
:102D78007B681B6803F00403002B10D07B681A697A
:102D88003F4B9B6903F070039A4208D23C4B9B6906
:102D980023F070027B681B69394913438B617B6898
:102DA8001B6803F00803002B10D07B685A69344B6A
:102DB800DB6903F070039A4208D2314BDB6923F0D8
:102DC80070027B685B692E491343CB617B681B6883
:102DD80003F01003002B10D07B689A69284BDB693D
:102DE80003F4E0639A4208D2254BDB6923F4E062DE
:102DF8007B689B6922491343CB617B681B6803F09E
:102E08002003002B10D07B68DA691D4B1B6A03F086
:102E180070039A4208D21A4B1B6A23F070027B682F
:102E2800DB69174913430B6200F034F80246144B70
:102E38009B691B0A03F00F031249CB5C03F01F03C5
:102E480022FA03F33B610E4B9B6903F00F030D4A13
:102E5800D35C03F01F033A6922FA03F30A4A1360AA
:102E68000A4A3B6913600A4B1B681846FEF70CF9BF
:102E78000346FB73FB7B18461837BD4680BD00BF71
:102E880000440258E86600080400002400000024FA
:102E98000800002480B489B000AFB34B1B6903F06D
:102EA8003803182B00F2558101A252F823F000BF15
:102EB8001D2F00085B3100085B3100085B310008FA
:102EC8005B3100085B3100085B3100085B310008AA
:102ED800432F00085B3100085B3100085B310008B4
:102EE8005B3100085B3100085B3100085B3100088A
:102EF800492F00085B3100085B3100085B3100088E
:102F08005B3100085B3100085B3100085B31000869
:102F18004F2F0008944B1B6803F02003002B09D0A7
:102F2800914B1B68DB0803F00303904A22FA03F372
:102F3800BB6111E18D4BBB610EE18D4BBB610BE1B8
:102F48008C4BBB6108E1884B9B6A03F003037B61F0
:102F5800854B9B6A1B0903F03F033B61824BDB6A8D
:102F680003F00103FB60804B5B6BDB08C3F30C03CE
:102F7800FA6802FB03F307EE903AF8EE677AC7EDBA
:102F8800027A3B69002B00F0E1807B69022B00F09C
:102F980083807B69022B00F2A1807B69002B03D020
:102FA8007B69012B56D099E06F4B1B6803F0200317
:102FB800002B2DD06C4B1B68DB0803F003036B4A16
:102FC80022FA03F37B607B6807EE903AF8EE676AB3
:102FD8003B6907EE903AF8EE677A86EEA77A624B7D
:102FE8001B6BC3F3080307EE903AF8EE676A97ED98
:102FF800026ADFED615AC6EE257A76EEA77AF7EE19
:10300800006A77EEA67A67EE277AC7ED077A87E037
:103018003B6907EE903AF8EE677ADFED586A86EE7C
:10302800A77A514B1B6BC3F3080307EE903AF8EEEF
:10303800676A97ED026ADFED505AC6EE257A76EE9A
:10304800A77AF7EE006A77EEA67A67EE277AC7EDD9
:10305800077A65E03B6907EE903AF8EE677ADFEDAC
:10306800486A86EEA77A404B1B6BC3F3080307EE4A
:10307800903AF8EE676A97ED026ADFED3F5AC6EEBE
:10308800257A76EEA77AF7EE006A77EEA67A67EEEB
:10309800277AC7ED077A43E03B6907EE903AF8EEE6
:1030A800677ADFED386A86EEA77A2F4B1B6BC3F37E
:1030B800080307EE903AF8EE676A97ED026ADFEDCB
:1030C8002E5AC6EE257A76EEA77AF7EE006A77EEE4
:1030D800A67A67EE277AC7ED077A21E03B6907EE03
:1030E800903AF8EE677ADFED266A86EEA77A1E4BED
:1030F8001B6BC3F3080307EE903AF8EE676A97ED87
:10310800026ADFED1D5AC6EE257A76EEA77AF7EE4B
:10311800006A77EEA67A67EE277AC7ED077A00BFCE
:10312800114B1B6B5B0A03F07F0301333B603B6869
:1031380007EE903AB8EE677AD7ED076AC6EE877A57
:10314800FCEEE77A17EE903ABB6105E00023BB611D
:1031580002E0074BBB6100BFBB6918462437BD4678
:103168005DF8047B704700BF004402580090D0030C
:1031780000093D0000127A00000000460024744C4B
:103188000024744A0024F44A80B582B000AFFFF7E7
:1031980081FE0246104B9B691B0A03F00F030F497F
:1031A800CB5C03F01F0322FA03F37B600A4B9B6995
:1031B80003F00F03094AD35C03F01F037A6822FA6D
:1031C80003F3074A1360074A7B681360044B1B68C4
:1031D80018460837BD4680BD00440258E866000816
:1031E800040000240000002480B500AFFFF7CCFFE6
:1031F8000246064BDB691B0903F007030449CB5C55
:1032080003F01F0322FA03F3184680BD0044025856
:10321800E866000880B500AFFFF7B6FF0246064B28
:10322800DB691B0A03F007030449CB5C03F01F03A7
:1032380022FA03F3184680BD00440258E8660008E5
:103248002DE9B04FCAB000AFC7F81401002387F8C2
:103258002731002387F82631D7F81431D3E9002322
:1032680002F00064002554EA050349D0D7F8143168
:103278009B6EB3F5401F2FD0B3F5401F28D8B3F588
:10328800001F1AD0B3F5001F22D8002B03D0B3F5C6
:10329800801F07D01CE0B84BDB6AB74A43F4003301
:1032A800D3621AE0D7F8143108330221184601F026
:1032B8008FFC034687F827310FE0D7F814312833FD
:1032C8000221184601F036FD034687F8273104E04D
:1032D800012387F8273100E000BF97F82731002B3A
:1032E8000AD1A54B1B6D23F44011D7F814319B6EFE
:1032F800A14A0B43136503E097F8273187F8263175
:10330800D7F81431D3E9002302F480784FF000098C
:1033180058EA090347D0D7F814319B6D042B2AD8F3
:1033280001A252F823F000BF4533000853330008C8
:103338006933000887330008873300088E4BDB6A3F
:103348008D4A43F40033D3621AE0D7F814310833B6
:103358000021184601F03CFC034687F827310FE0AE
:10336800D7F8143128330021184601F0E3FC03464E
:1033780087F8273104E0012387F8273100E000BFF0
:1033880097F82731002B0AD17B4B1B6D23F00701DF
:10339800D7F814319B6D784A0B43136503E097F80F
:1033A800273187F82631D7F81431D3E9002302F4FE
:1033B800007A4FF0000B5AEA0B034CD0D7F81431BF
:1033C800DB6DB3F5807F30D0B3F5807F29D8C02B73
:1033D8002DD0C02B25D8802B18D0802B21D8002B9E
:1033E80002D0402B07D01CE0634BDB6A624A43F4EF
:1033F8000033D3621CE0D7F8143108330021184693
:1034080001F0E6FB034687F8273111E0D7F81431BD
:1034180028330021184601F08DFC034687F8273130
:1034280006E0012387F8273102E000BF00E000BF73
:1034380097F82731002B0AD14F4B1B6D23F4E0710D
:10344800D7F81431DB6D4C4A0B43136503E097F84A
:10345800273187F82631D7F81431D3E9002302F44D
:103468008063C7F808310023C7F80C31D7E9421246
:103478000B46134353D0D7F81431D3F8A830B3F51B
:10348800000F35D0B3F5000F2ED8B3F5C00F31D0EB
:10349800B3F5C00F28D8B3F5800F1AD0B3F5800F55
:1034A80022D8002B03D0B3F5001F07D01CE0324B05
:1034B800DB6A314A43F40033D3621CE0D7F8143195
:1034C80008330021184601F083FB034687F82731AB
:1034D80011E0D7F8143128330021184601F02AFCEE
:1034E800034687F8273106E0012387F8273102E0F1
:1034F80000BF00E000BF97F82731002B0BD11E4B0F
:103508009B6D23F46001D7F81431D3F8A8301A4A18
:103518000B43936503E097F8273187F82631D7F8EE
:103528001431D3E9002302F40063C7F80031002303
:10353800C7F80431D7E940120B46134356D0D7F8E1
:103548001431D3F8AC30B3F1806F38D0B3F1806F59
:1035580031D8B3F1407F34D0B3F1407F2BD8B3F1E9
:10356800007F1DD0B3F1007F25D8002B06D0B3F122
:10357800807F0AD01FE000BF00440258A24BDB6ADC
:10358800A14A43F40033D3621CE0D7F8143108335E
:103598000021184601F01CFB034687F8273111E08B
:1035A800D7F8143128330021184601F0C3FB03462D
:1035B80087F8273106E0012387F8273102E000BFAA
:1035C80000E000BF97F82731002B0BD18E4B9B6D85
:1035D80023F0E061D7F81431D3F8AC308A4A0B43B2
:1035E800936503E097F8273187F82631D7F8143127
:1035F800D3E9002302F00073C7F8F8300023C7F8B6
:10360800FC30D7E93E120B4613433AD0D7F81431B1
:10361800DB6C302B1FD0302B19D8202B0CD0202B53
:1036280015D8002B19D0102B11D1774BDB6A764AAD
:1036380043F40033D36211E0D7F814310833022180
:10364800184601F0C5FA034687F8273106E001233A
:1036580087F8273102E000BF00E000BF97F8273164
:10366800002B0AD1684BDB6C23F03001D7F81431FA
:10367800DB6C654A0B43D36403E097F8273187F87E
:103688002631D7F81431D3E9002302F48053C7F860
:10369800F0300023C7F8F430D7E93C120B46134347
:1036A80051D0D7F814311B6EB3F5804F35D0B3F530
:1036B800804F2ED8B3F5405F31D0B3F5405F28D89E
:1036C800B3F5005F1AD0B3F5005F22D8002B03D002
:1036D800B3F5805F07D01CE04B4BDB6A4A4A43F4E2
:1036E8000033D3621CE0D7F81431083300211846A0
:1036F80001F06EFA034687F8273111E0D7F8143144
:1037080028330021184601F015FB034687F82731B6
:1037180006E0012387F8273102E000BF00E000BF80
:1037280097F82731002B0AD1374B1B6D23F4E04162
:10373800D7F814311B6E344A0B43136503E097F82E
:10374800273187F82631D7F81431D3E9002302F45A
:103758000053C7F8E8300023C7F8EC30D7E93A122D
:103768000B46134356D0D7F814315B6EB3F5A02F30
:1037780033D0B3F5A02F2CD8B3F5802F2FD0B3F5C5
:10378800802F26D8B3F5403F2BD0B3F5403F20D843
:10379800B3F5003F12D0B3F5003F1AD8002B22D062
:1037A800B3F5803F15D1D7F81431083301211846F5
:1037B80001F00EFA034687F8273115E0D7F81431DF
:1037C80028330121184601F0B5FA034687F8273156
:1037D8000AE0012387F8273106E000BF04E000BFB4
:1037E80002E000BF00E000BF97F82731002B0DD1A1
:1037F800054B1B6D23F4E021D7F814315B6E024AA8
:103808000B43136506E000BF0044025897F82731C0
:1038180087F82631D7F81431D3E9002302F480431E
:10382800C7F8E0300023C7F8E430D7E938120B4670
:10383800134355D0D7F81431D3F8B030B3F1A04FB3
:1038480033D0B3F1A04F2CD8B3F1804F2FD0B3F1C0
:10385800804F26D8B3F1405F2BD0B3F1405F20D81A
:10386800B3F1005F12D0B3F1005F1AD8002B22D059
:10387800B3F1805F15D1D7F8143108330121184608
:1038880001F0A6F9034687F8273115E0D7F8143177
:1038980028330121184601F04DFA034687F82731ED
:1038A8000AE0012387F8273106E000BF04E000BFE3
:1038B80002E000BF00E000BF97F82731002B0BD1D2
:1038C800A34B9B6D23F0E041D7F81431D3F8B03007
:1038D8009F4A0B43936503E097F8273187F8263111
:1038E800D7F81431D3E9002302F40043C7F8D830DD
:1038F8000023C7F8DC30D7E936120B46134337D01C
:10390800D7F814311B6FB3F1005F0ED0B3F1005F2D
:1039180016D8002B18D0B3F1805F11D18C4BDB6A1D
:103928008B4A43F40033D3620FE0D7F814310833DD
:103938000121184601F04CF9034687F8273104E0C5
:10394800012387F8273100E000BF97F82731002BC3
:103958000AD17F4B1B6D23F04051D7F814311B6FF0
:103968007B4A0B43136503E097F8273187F8263124
:10397800D7F81431D3E9002302F08073C7F8D030A8
:103988000023C7F8D430D7E934120B46134339D093
:10399800D7F814319B6C032B1CD801A252F823F0E2
:1039A800E5390008B9390008C7390008E5390008C1
:1039B800674BDB6A664A43F40033D3620FE0D7F8FB
:1039C800143108330221184601F002F9034687F83A
:1039D800273104E0012387F8273100E000BF97F87A
:1039E8002731002B0AD15A4BDB6C23F00301D7F89F
:1039F80014319B6C564A0B43D36403E097F8273184
:103A080087F82631D7F81431D3E9002302F480036C
:103A1800C7F8C8300023C7F8CC30D7E932120B46B4
:103A2800134300F09F804B4B1B684A4A43F4807352
:103A38001360FDF773FBC7F820010BE0FDF76EFB81
:103A48000246D7F82031D31A642B03D9032387F809
:103A5800273105E03F4B1B6803F48073002BEDD042
:103A680097F82731002B79D1394B1A6FD7F81431D1
:103A7800D3F8B430534003F44073002B15D0344BC3
:103A88001B6F23F44073C7F81C31314B1B6F304A4E
:103A980043F4803313672E4B1B6F2D4A23F4803376
:103AA80013672B4AD7F81C311367D7F81431D3F8AA
:103AB800B430B3F5807F18D1FDF730FBC7F820018B
:103AC8000DE0FDF72BFB0246D7F82031D21A41F260
:103AD80088339A4203D9032387F8273105E01C4B22
:103AE8001B6F03F00203002BEBD097F82731002B54
:103AF80029D1D7F81431D3F8B43003F44073B3F5AF
:103B0800407F0ED1124B1B6923F47C51D7F8143136
:103B1800D3F8B4301A09104B13400D4A0B43136104
:103B280005E00B4B1B690A4A23F47C531361084BCD
:103B3800196FD7F81431D3F8B430C3F30B03044A20
:103B48000B4313670EE097F8273187F8263109E011
:103B58000044025800480258CFFFFF0097F8273169
:103B680087F82631D7F81431D3E9002302F001038E
:103B7800C7F8C0300023C7F8C430D7E930120B4665
:103B8800134300F08980D7F81431DB6F282B6BD8EA
:103B980001A252F823F000BF793C0008713C0008EC
:103BA800713C0008713C0008713C0008713C000839
:103BB800713C0008713C0008453C0008713C000855
:103BC800713C0008713C0008713C0008713C000819
:103BD800713C0008713C00085B3C0008713C00081F
:103BE800713C0008713C0008713C0008713C0008F9
:103BF800713C0008713C0008793C0008713C0008E1
:103C0800713C0008713C0008713C0008713C0008D8
:103C1800713C0008713C0008793C0008713C0008C0
:103C2800713C0008713C0008713C0008713C0008B8
:103C3800713C0008713C0008793C0008D7F8143141
:103C480008330121184600F0C3FF034687F82731DF
:103C58000FE0D7F8143128330121184601F06AF82B
:103C6800034687F8273104E0012387F8273100E06D
:103C780000BF97F82731002B0AD1BF4B5B6D23F0AB
:103C88003801D7F81431DB6FBB4A0B43536503E0A7
:103C980097F8273187F82631D7F81431D3E900236C
:103CA80002F00203C7F8B8300023C7F8BC30D7E9E0
:103CB8002E120B46134341D0D7F814319B6F052BB6
:103CC80024D801A252F823F01D3D0008E93C000861
:103CD800FF3C00081D3D00081D3D00081D3D000873
:103CE800D7F8143108330121184600F071FF034654
:103CF80087F827310FE0D7F8143128330121184607
:103D080001F018F8034687F8273104E0012387F803
:103D1800273100E000BF97F82731002B0AD1964BD6
:103D28005B6D23F00701D7F814319B6F924A0B4360
:103D3800536503E097F8273187F82631D7F814310F
:103D4800D3E9002302F00403C7F8B0300023C7F812
:103D5800B430D7E92C120B46134344D0D7F81431AA
:103D6800D3F89430052B25D801A252F823F000BFD0
:103D7800C53D0008913D0008A73D0008C53D000865
:103D8800C53D0008C53D0008D7F8143108330121A6
:103D9800184600F01DFF034687F827310FE0D7F8D3
:103DA800143128330121184600F0C4FF034687F870
:103DB800273104E0012387F8273100E000BF97F896
:103DC8002731002B0BD16C4B9B6D23F00701D7F8E3
:103DD8001431D3F89430684A0B43936503E097F89D
:103DE800273187F82631D7F81431D3E9002302F0B8
:103DF8002003C7F8A8300023C7F8AC30D7E92A1247
:103E08000B46134355D0D7F81431D3F89030B3F19B
:103E1800A04F33D0B3F1A04F2CD8B3F1804F2FD09F
:103E2800B3F1804F26D8B3F1405F2BD0B3F1405F98
:103E380020D8B3F1005F12D0B3F1005F1AD8002B7D
:103E480022D0B3F1805F15D1D7F81431083300219F
:103E5800184600F0BDFE034687F8273115E0D7F86D
:103E6800143128330221184600F064FF034687F80E
:103E780027310AE0012387F8273106E000BF04E074
:103E880000BF02E000BF00E000BF97F82731002B19
:103E98000BD1394B5B6D23F0E041D7F81431D3F8DF
:103EA8009030354A0B43536503E097F8273187F87C
:103EB8002631D7F81431D3E9002302F04003C7F8BC
:103EC800A0300023C7F8A430D7E928120B461343C3
:103ED80058D0D7F81431D3F89C30B3F5A05F33D05D
:103EE800B3F5A05F2CD8B3F5805F2FD0B3F5805F12
:103EF80026D8B3F5406F2BD0B3F5406F20D8B3F573
:103F0800006F12D0B3F5006F1AD8002B22D0B3F58A
:103F1800806F15D1D7F8143108330021184600F006
:103F280057FE034687F8273115E0D7F814312833B0
:103F38000221184600F0FEFE034687F827310AE002
:103F4800012387F8273106E000BF04E000BF02E044
:103F580000BF00E000BF97F82731002B0ED1064BB9
:103F68009B6D23F4E051D7F81431D3F89C30024A02
:103F78000B43936506E000BF0044025897F82731C9
:103F880087F82631D7F81431D3E9002302F08003EB
:103F9800C7F898300023C7F89C30D7E926120B469B
:103FA800134355D0D7F81431D3F8A030B3F5204FC8
:103FB80033D0B3F5204F2CD8B3F5004F2FD0B3F53D
:103FC800004F26D8B3F5C04F2BD0B3F5C04F20D83B
:103FD800B3F5804F12D0B3F5804F1AD8002B22D0FA
:103FE800B3F5005F15D1D7F814310833002118460E
:103FF80000F0EEFD034687F8273115E0D7F81431B5
:1040080028330221184600F095FE034687F8273129
:104018000AE0012387F8273106E000BF04E000BF6B
:1040280002E000BF00E000BF97F82731002B0BD15A
:10403800A14B9B6D23F46041D7F81431D3F8A0301D
:104048009D4A0B43936503E097F8273187F826319B
:10405800D7F81431D3E9002302F00803C7F89030E9
:104068000023C7F89430D7E924120B4613431ED017
:10407800D7F81431D3F88430B3F5805F0CD1D7F872
:10408800143128330221184600F054FE0346002B51
:1040980002D0012387F82631874B5B6D23F440510A
:1040A800D7F81431D3F88430834A0B435365D7F8D3
:1040B8001431D3E9002302F01003C7F88830002335
:1040C800C7F88C30D7E922120B4613431ED0D7F815
:1040D8001431D3F89830B3F5807F0CD1D7F8143168
:1040E80028330221184600F025FE0346002B02D093
:1040F800012387F82631704B9B6D23F44071D7F864
:104108001431D3F898306C4A0B439365D7F81431BF
:10411800D3E9002302F40023C7F880300023C7F84E
:104128008430D7E920120B4613433ED0D7F8143118
:10413800D3F8A430B3F5003F22D0B3F5003F1BD825
:10414800002B03D0B3F5803F0BD015E0D7F814311E
:1041580008330021184600F03BFD034687F8273155
:104168000FE0D7F8143128330221184600F0E2FD99
:10417800034687F8273104E0012387F8273100E058
:1041880000BF97F82731002B0BD14B4B9B6D23F4C5
:104198004031D7F81431D3F8A430474A0B4393651C
:1041A80003E097F8273187F82631D7F81431D3E997
:1041B800002302F48023BB670023FB67D7E91E12A4
:1041C8000B4613433BD0D7F81431D3F88830B3F5F6
:1041D800401F1FD0B3F5401F18D8B3F5801F03D078
:1041E800B3F5001F07D011E0334BDB6A324A43F4C2
:1041F8000033D3620FE0D7F8143128330121184671
:1042080000F098FD034687F8273104E0012387F87A
:10421800273100E000BF97F82731002B0BD1264B40
:104228005B6D23F44011D7F81431D3F88830224A53
:104238000B43536503E097F8273187F82631D7F801
:104248001431D3E9002302F480333B6700237B67F2
:10425800D7E91C120B46134334D0D7F814311B6D21
:10426800002B03D0B3F5803F07D011E0124BDB6A77
:10427800114A43F40033D3620EE0D7F814310833FF
:104288000221184600F0A4FC034687F8273103E012
:10429800012387F8273100BF97F82731002B0DD16C
:1042A800054BDB6C23F48031D7F814311B6D024ABF
:1042B8000B43D36406E000BF0044025897F8273147
:1042C80087F82631D7F81431D3E9002302F00053D8
:1042D800BB660023FB66D7E91A120B4613430CD0C2
:1042E800D7F8143128330221184600F023FD03467D
:1042F800002B02D0012387F82631D7F81431D3E9EF
:10430800002302F400333B6600237B66D7E91812CA
:104318000B46134338D0D7F81431D3F88030B3F5AF
:10432800407F18D0B3F5407F11D8B3F5007F14D083
:10433800B3F5007F0BD8002B11D0B3F5807F06D1E1
:10434800C34BDB6AC24A43F40033D36208E001235B
:1043580087F8273104E000BF02E000BF00E000BF9B
:1043680097F82731002B0BD1B94B5B6D23F44071C3
:10437800D7F81431D3F88030B54A0B43536503E0BE
:1043880097F8273187F82631D7F81431D3E9002375
:1043980002F48013BB650023FB65D7E916120B46B0
:1043A800134309D0AA4B1B6D23F00041D7F81431F1
:1043B8005B6FA74A0B431365D7F81431D3E9002381
:1043C80002F080533B6500237B65D7E914120B4646
:1043D80013430AD09E4B1B6923F48041D7F814314C
:1043E800D3F8B8309A4A0B431361D7F81431D3E99C
:1043F800002302F40013BB640023FB64D7E9121204
:104408000B46134309D0924B1B6D23F08071D7F8EC
:104418001431DB6E8E4A0B431365D7F81431D3E998
:10442800002302F080433B6400237B64D7E9101229
:104438000B4613430ED0864B1B69854A23F4004371
:104448001361834B1969D7F81431D3F8BC30804A0B
:104458000B431361D7F81431D3E9002302F000436A
:10446800BB630023FB63D7E90E120B46134309D045
:10447800774BDB6C23F04051D7F814315B6D744AED
:104488000B43D364D7F81431D3E9002302F40003B3
:104498003B6300237B63D7E90C120B4613430AD016
:1044A8006B4B5B6D23F44001D7F81431D3F88C3093
:1044B800674A0B435365D7F81431D3E90023002129
:1044C800B96203F00103FB62D7E90A120B461343F2
:1044D80011D0D7F8143108330021184600F078FBC2
:1044E800034687F8273197F82731002B03D097F830
:1044F800273187F82631D7F81431D3E90023002172
:10450800396203F002037B62D7E908120B461343B2
:1045180011D0D7F8143108330121184600F058FBA0
:10452800034687F8273197F82731002B03D097F8EF
:10453800273187F82631D7F81431D3E90023002131
:10454800B96103F00403FB61D7E906120B46134374
:1045580011D0D7F8143108330221184600F038FB7F
:10456800034687F8273197F82731002B03D097F8AF
:10457800273187F82631D7F81431D3E900230021F1
:10458800396103F008037B61D7E904120B46134332
:1045980011D0D7F8143128330021184600F0CAFB8F
:1045A800034687F8273197F82731002B03D097F86F
:1045B800273187F82631D7F81431D3E900230021B1
:1045C800B96003F01003FB60D7E902120B461343EE
:1045D80011D0D7F8143128330121184600F0AAFB6E
:1045E800034687F8273197F82731002B03D097F82F
:1045F800273187F82631D7F81431D3E90023002171
:10460800396003F020037B60D7E900120B4613439F
:1046180011D0D7F8143128330221184600F08AFB4C
:10462800034687F8273197F82731002B03D097F8EE
:10463800273187F8263197F82631002B01D100233E
:1046480000E00123184607F59477BD46BDE8B08F12
:104658000044025880B500AFFEF796FD0246064BAF
:104668001B6A1B0903F007030449CB5C03F01F0313
:1046780022FA03F3184680BD00440258E866000891
:1046880080B489B000AF7860A14B9B6A03F0030344
:10469800BB619F4B9B6A1B0B03F03F037B619C4BE9
:1046A800DB6A1B0903F001033B61994BDB6BDB08F9
:1046B800C3F30C033A6902FB03F307EE903AF8EEF2
:1046C800677AC7ED037A7B69002B00F01181BB691B
:1046D800022B00F08380BB69022B00F2A180BB692A
:1046E800002B03D0BB69012B56D099E0884B1B687F
:1046F80003F02003002B2DD0854B1B68DB0803F04B
:104708000303844A22FA03F3BB60BB6807EE903ABE
:10471800F8EE676A7B6907EE903AF8EE677A86EEFC
:10472800A77A7B4B9B6BC3F3080307EE903AF8EE2E
:10473800676A97ED036ADFED785AC6EE257A76EE5A
:10474800A77AF7EE006A77EEA67A67EE277AC7EDC2
:10475800077A87E07B6907EE903AF8EE677ADFED33
:104768006F6A86EEA77A6A4B9B6BC3F3080307EE62
:10477800903AF8EE676A97ED036ADFED675AC6EE7E
:10478800257A76EEA77AF7EE006A77EEA67A67EED4
:10479800277AC7ED077A65E07B6907EE903AF8EE6D
:1047A800677ADFED5F6A86EEA77A594B9B6BC3F396
:1047B800080307EE903AF8EE676A97ED036ADFEDB3
:1047C800565AC6EE257A76EEA77AF7EE006A77EEA5
:1047D800A67A67EE277AC7ED077A43E07B6907EE8A
:1047E800903AF8EE677ADFED4F6A86EEA77A484B83
:1047F8009B6BC3F3080307EE903AF8EE676A97EDF0
:10480800036ADFED455AC6EE257A76EEA77AF7EE0B
:10481800006A77EEA67A67EE277AC7ED077A21E075
:104828007B6907EE903AF8EE677ADFED3D6A86EE2F
:10483800A77A374B9B6BC3F3080307EE903AF8EE61
:10484800676A97ED036ADFED345AC6EE257A76EE8D
:10485800A77AF7EE006A77EEA67A67EE277AC7EDB1
:10486800077A00BF2A4B9B6B5B0A03F07F0307EEB6
:10487800903AF8EE677AB7EE007A37EE877AD7ED96
:10488800076AC6EE877AFCEEE77A17EE902A7B680D
:104898001A601F4B9B6B1B0C03F07F0307EE903ACB
:1048A800F8EE677AB7EE007A37EE877AD7ED076ABF
:1048B800C6EE877AFCEEE77A17EE902A7B685A6094
:1048C800134B9B6B1B0E03F07F0307EE903AF8EE39
:1048D800677AB7EE007A37EE877AD7ED076AC6EEC1
:1048E800877AFCEEE77A17EE902A7B689A6008E0F0
:1048F8007B6800221A607B6800225A607B6800226D
:104908009A6000BF2437BD465DF8047B704700BF3E
:10491800004402580090D003000000460024744C64
:104928000024744A0024F44A80B489B000AF786047
:10493800A14B9B6A03F00303BB619F4B9B6A1B0D52
:1049480003F03F037B619C4BDB6A1B0A03F0010306
:104958003B61994B5B6CDB08C3F30C033A6902FBC0
:1049680003F307EE903AF8EE677AC7ED037A7B69AE
:10497800002B00F01181BB69022B00F08380BB691A
:10498800022B00F2A180BB69002B03D0BB69012B6D
:1049980056D099E0884B1B6803F02003002B2DD0DC
:1049A800854B1B68DB0803F00303844A22FA03F3F0
:1049B800BB60BB6807EE903AF8EE676A7B6907EE62
:1049C800903AF8EE677A86EEA77A7B4B1B6CC3F3B6
:1049D800080307EE903AF8EE676A97ED036ADFED91
:1049E800785AC6EE257A76EEA77AF7EE006A77EE61
:1049F800A67A67EE277AC7ED077A87E07B6907EE24
:104A0800903AF8EE677ADFED6F6A86EEA77A6A4B1E
:104A18001B6CC3F3080307EE903AF8EE676A97ED4C
:104A2800036ADFED675AC6EE257A76EEA77AF7EEC7
:104A3800006A77EEA67A67EE277AC7ED077A65E00F
:104A48007B6907EE903AF8EE677ADFED5F6A86EEEB
:104A5800A77A594B1B6CC3F3080307EE903AF8EE9C
:104A6800676A97ED036ADFED565AC6EE257A76EE49
:104A7800A77AF7EE006A77EEA67A67EE277AC7ED8F
:104A8800077A43E07B6907EE903AF8EE677ADFED44
:104A98004F6A86EEA77A484B1B6CC3F3080307EEF0
:104AA800903AF8EE676A97ED036ADFED455AC6EE6D
:104AB800257A76EEA77AF7EE006A77EEA67A67EEA1
:104AC800277AC7ED077A21E07B6907EE903AF8EE7E
:104AD800677ADFED3D6A86EEA77A374B1B6CC3F326
:104AE800080307EE903AF8EE676A97ED036ADFED80
:104AF800345AC6EE257A76EEA77AF7EE006A77EE94
:104B0800A67A67EE277AC7ED077A00BF2A4B1B6C97
:104B18005B0A03F07F0307EE903AF8EE677AB7EE88
:104B2800007A37EE877AD7ED076AC6EE877AFCEE09
:104B3800E77A17EE902A7B681A601F4B1B6C1B0CD8
:104B480003F07F0307EE903AF8EE677AB7EE007A43
:104B580037EE877AD7ED076AC6EE877AFCEEE77AF2
:104B680017EE902A7B685A60134B1B6C1B0E03F0E0
:104B78007F0307EE903AF8EE677AB7EE007A37EEE1
:104B8800877AD7ED076AC6EE877AFCEEE77A17EEE2
:104B9800902A7B689A6008E07B6800221A607B682C
:104BA80000225A607B6800229A6000BF2437BD4605
:104BB8005DF8047B704700BF004402580090D003A2
:104BC800000000460024744C0024744A0024F44A6F
:104BD80080B584B000AF786039600023FB73534B15
:104BE8009B6A03F00303032B01D1012399E04F4B88
:104BF8001B684E4A23F080631360FCF78FFAB86095
:104C080008E0FCF78BFA0246BB68D31A022B01D9DD
:104C1800032386E0454B1B6803F00063002BF0D1AB
:104C2800424B9B6A23F47C327B681B681B033F4919
:104C380013438B627B685B68013BC3F308027B68A4
:104C48009B68013B5B029BB21A437B68DB68013BB4
:104C58001B0403F4FE031A437B681B69013B1B0614
:104C680003F0FE43314913438B63304BDB6A23F077
:104C7800C0027B685B692D491343CB622B4BDB6A0F
:104C880023F020027B689B6928491343CB62274B9A
:104C9800DB6A264A23F01003D362244BDA6B244BD9
:104CA80013407A68D269D20020491343CB631F4B63
:104CB800DB6A1E4A43F01003D3623B68002B06D11F
:104CC8001A4BDB6A194A43F40023D3620FE03B68AE
:104CD800012B06D1154BDB6A144A43F48013D362C7
:104CE80005E0124BDB6A114A43F40013D3620F4B01
:104CF8001B680E4A43F080631360FCF70FFAB86034
:104D080008E0FCF70BFA0246BB68D31A022B01D95C
:104D1800032306E0054B1B6803F00063002BF0D06B
:104D2800FB7B18461037BD4680BD00BF00440258C3
:104D38000700FFFF80B584B000AF786039600023BA
:104D4800FB73534B9B6A03F00303032B01D101232D
:104D580099E04F4B1B684E4A23F080531360FCF7D1
:104D6800DDF9B86008E0FCF7D9F90246BB68D31A48
:104D7800022B01D9032386E0454B1B6803F000533F
:104D8800002BF0D1424B9B6A23F07C727B681B6836
:104D98001B053F4913438B627B685B68013BC3F388
:104DA80008027B689B68013B5B029BB21A437B68E5
:104DB800DB68013B1B0403F4FE031A437B681B6991
:104DC800013B1B0603F0FE43314913430B64304B90
:104DD800DB6A23F440627B685B692D491343CB622D
:104DE8002B4BDB6A23F400727B689B6928491343C9
:104DF800CB62274BDB6A264A23F48073D362244BA9
:104E08005A6C244B13407A68D269D2002049134364
:104E18004B641F4BDB6A1E4A43F48073D3623B68C2
:104E2800002B06D11A4BDB6A194A43F48003D3627C
:104E38000FE03B68012B06D1154BDB6A144A43F49B
:104E48000003D36205E0124BDB6A114A43F080731A
:104E5800D3620F4B1B680E4A43F080531360FCF774
:104E68005DF9B86008E0FCF759F90246BB68D31A47
:104E7800022B01D9032306E0054B1B6803F00053FE
:104E8800002BF0D0FB7B18461037BD4680BD00BF15
:104E9800004402580700FFFF80B582B000AF786079
:104EA8007B68002B01D1012342E07B68D3F888306E
:104EB800002B06D17B68002283F884207868FBF7F2
:104EC800DFFE7B682422C3F888207B681B681A6889
:104ED8007B681B6822F001021A607B689B6A002BC2
:104EE80002D0786800F090FD786800F025F8034655
:104EF800012B01D101231BE07B681B685A687B6882
:104F08001B6822F490425A607B681B689A687B6829
:104F18001B6822F02A029A607B681B681A687B6803
:104F28001B6842F001021A60786800F00FFE034621
:104F380018460837BD4680BD2DE9B04F92B000AF86
:104F48007861002387F842307B699A687B691B691E
:104F58001A437B695B691A437B69DB6913437B648A
:104F68007B691B681A68BE4B13407A691268796CB2
:104F78000B4313607B691B685B6823F440517B69B2
:104F8800DA687B691B680A435A607B699B697B64A2
:104F98007B691B68B34A934204D07B691B6A7A6CAD
:104FA80013437B647B691B689A68AF4B13407A692B
:104FB8001268796C0B4393607B691B68DB6A23F08A
:104FC8000F017B695A6A7B691B680A43DA627B694D
:104FD8001B68A64A934277D1A54B5B6D03F0380353
:104FE800282B6DD801A252F823F000BF9950000871
:104FF800C9500008C9500008C9500008C950000825
:10500800C9500008C9500008C9500008A15000083C
:10501800C9500008C9500008C9500008C950000804
:10502800C9500008C9500008C9500008A950000814
:10503800C9500008C9500008C9500008C9500008E4
:10504800C9500008C9500008C9500008B1500008EC
:10505800C9500008C9500008C9500008C9500008C4
:10506800C9500008C9500008C9500008B9500008C4
:10507800C9500008C9500008C9500008C9500008A4
:10508800C9500008C9500008C9500008C15000089C
:10509800012387F8433022E2042387F843301EE2D5
:1050A800082387F843301AE2102387F8433016E2C2
:1050B800202387F8433012E2402387F843300EE27A
:1050C800802387F843300AE27B691B68694A934268
:1050D80030D1674B5B6D03F00703052B26D801A27F
:1050E80052F823F0055100080D5100081551000829
:1050F8001D510008255100082D510008002387F88C
:105108004330ECE1042387F84330E8E1082387F8CB
:105118004330E4E1102387F84330E0E1202387F8A7
:105128004330DCE1402387F84330D8E1802387F817
:105138004330D4E17B691B684F4A934230D14C4BD2
:105148005B6D03F00703052B26D801A252F823F064
:1051580071510008795100088151000889510008EF
:105168009151000899510008002387F84330B6E1AF
:10517800042387F84330B2E1082387F84330AEE1CF
:10518800102387F84330AAE1202387F84330A6E1AB
:10519800402387F84330A2E1802387F843309EE11B
:1051A8007B691B68354A934230D1314B5B6D03F004
:1051B8000703052B26D801A252F823F0DD51000879
:1051C800E5510008ED510008F5510008FD510008AF
:1051D80005520008002387F8433080E1042387F84C
:1051E80043307CE1082387F8433078E1102387F8BF
:1051F800433074E1202387F8433070E1402387F877
:1052080043306CE1802387F8433068E17B691B6891
:105218001B4A934242D1164B5B6D03F00703052BE3
:1052280038D801A252F823F0495200085152000818
:1052380059520008615200088D5200089552000822
:10524800002387F843304AE1042387F8433046E1D6
:10525800082387F8433042E1102387F843303EE1C2
:10526800F369FFCF000C0058FFF4FF110010014054
:10527800004402580044004000480040004C0040F0
:1052880000500040202387F8433028E1402387F866
:10529800433024E1802387F8433020E17B691B6891
:1052A800CB4A934276D1CB4B5B6D03F03803282B66
:1052B8006CD801A252F823F06553000895530008F2
:1052C8009553000895530008955300089553000816
:1052D80095530008955300086D530008955300082E
:1052E80095530008955300089553000895530008F6
:1052F8009553000895530008755300089553000806
:1053080095530008955300089553000895530008D5
:1053180095530008955300087D53000895530008DD
:1053280095530008955300089553000895530008B5
:1053380095530008955300088553000895530008B5
:105348009553000895530008955300089553000895
:1053580095530008955300088D530008012387F8DA
:105368004330BCE0042387F84330B8E0082387F8CB
:105378004330B4E0102387F84330B0E0202387F8A7
:105388004330ACE0402387F84330A8E0802387F817
:105398004330A4E07B691B688F4A934230D18D4B20
:1053A8005B6D03F00703052B26D801A252F823F002
:1053B800D1530008D9530008E1530008E953000805
:1053C800F1530008F9530008002387F8433086E0BA
:1053D800042387F8433082E0082387F843307EE0CF
:1053E800102387F843307AE0202387F8433076E0AB
:1053F800402387F8433072E0802387F843306EE01B
:105408007B691B68754A934230D1724B5B6D03F020
:105418000703052B26D801A252F823F03D540008B3
:10542800455400084D540008555400085D540008C0
:1054380065540008002387F8433050E0042387F8B8
:1054480043304CE0082387F8433048E0102387F8BE
:10545800433044E0202387F8433040E0402387F876
:1054680043303CE0802387F8433038E07B691B6891
:105478005B4A934230D1574B9B6D03F00703052BD2
:1054880026D801A252F823F0A9540008B154000804
:10549800B9540008C1540008C9540008D154000880
:1054A800022387F843301AE0042387F8433016E0D4
:1054B800082387F8433012E0102387F843300EE0C2
:1054C800202387F843300AE0402387F8433006E07A
:1054D800802387F8433002E0802387F843307B69D4
:1054E8001B683F4A934240F0F88097F84330202BDE
:1054F80046DC022BC0F28280023B1E2B7ED801A222
:1055080052F823F08F5500080556000897550008F3
:10551800055600080556000805560008A755000856
:1055280005560008055600080556000805560008E7
:10553800055600080556000805560008B755000826
:1055480005560008055600080556000805560008C7
:1055580005560008055600080556000805560008B7
:1055680005560008055600080556000805560008A7
:10557800055600080556000805560008F7550008A6
:10558800402B37D03AE0FFF765F8F8633CE007F1C5
:1055980024031846FFF774F8BB6AFB6334E007F18D
:1055A80018031846FFF7C0F9FB69FB632CE0094BA9
:1055B8001B6803F02003002B16D0064B1B68DB0882
:1055C80003F00303074A22FA03F3FB631CE000BF5E
:1055D800001401400044025800780040007C00405C
:1055E800000C00580090D0039D4BFB630CE09D4BD2
:1055F800FB6309E04FF40043FB6305E00023FB6312
:10560800012387F8423000BFFB6B002B00F0DE81DE
:105618007B695B6A944A32F813301A46FB6BB3FB1A
:10562800F2F33B637B695A6813465B0013443A6B99
:105638009A4205D37B695B681B033A6B9A4203D98C
:10564800012387F84230C1E1FB6B0022BB60FA609E
:105658007B695B6A844A32F813309BB200223B6054
:105668007A60D7E90023D7E90201FAF731FE02464A
:105678000B46104619464FF000024FF000030B028C
:1056880043EA1063020279694968490800200C4618
:10569800054612EB040843EB05097B695B680022A9
:1056A8009A46934652465B4640464946FAF710FEEC
:1056B80002460B461346BB63BB6BB3F5407F08D36A
:1056C800BB6BB3F5801F04D27B691B68BA6BDA60C9
:1056D8007CE1012387F8423078E17B69DB69B3F527
:1056E800004F40F0C58097F84330202B48DC002B52
:1056F8007BDB202B79D801A252F823F08F570008C2
:1057080097570008F3570008F35700089F570008F9
:10571800F3570008F3570008F3570008AF5700087D
:10572800F3570008F3570008F3570008F357000829
:10573800F3570008F3570008F3570008BF5700084D
:10574800F3570008F3570008F3570008F357000809
:10575800F3570008F3570008F3570008F3570008F9
:10576800F3570008F3570008F3570008F3570008E9
:10577800F3570008F3570008F3570008E5570008E7
:10578800402B2ED031E0FDF72FFDF86333E0FDF715
:1057980041FDF8632FE007F124031846FEF770FF78
:1057A800BB6AFB6327E007F118031846FFF7BCF84C
:1057B800FB69FB631FE02D4B1B6803F02003002BE4
:1057C80009D02A4B1B68DB0803F00303244A22FA9A
:1057D80003F3FB630FE0224BFB630CE0214BFB63FD
:1057E80009E04FF40043FB6305E00023FB6301235A
:1057F80087F8423000BFFB6B002B00F0E7807B6925
:105808005B6A194A32F813301A46FB6BB3FBF2F3A2
:105818005A007B695B685B081A447B695B68B2FB6A
:10582800F3F3BB63BB6B0F2B16D9BB6BB3F5803F90
:1058380012D2BB6B9BB223F00F03FB86BB6B5B08DA
:105848009BB203F007039AB2FB8E1343FB867B6976
:105858001B68FA8EDA60B9E0012387F84230B5E0B8
:105868000090D00300093D00F86600080044025883
:1058780097F84330202B49DC002B7CDB202B7AD88F
:1058880001A252F823F000BF1B5900082359000851
:105898007F5900087F5900082B5900087F590008D4
:1058A8007F5900087F5900083B5900087F590008B4
:1058B8007F5900087F5900087F5900087F59000860
:1058C8007F5900087F5900084B5900087F59000884
:1058D8007F5900087F5900087F5900087F59000840
:1058E8007F5900087F5900087F5900087F59000830
:1058F8007F5900087F5900087F5900087F59000820
:105908007F5900087F59000871590008402B2ED094
:1059180031E0FDF769FCF86333E0FDF77BFCF863E1
:105928002FE007F124031846FEF7AAFEBB6AFB63C3
:1059380027E007F118031846FEF7F6FFFB69FB633B
:105948001FE02D4B1B6803F02003002B09D02A4BC6
:105958001B68DB0803F00303284A22FA03F3FB63FE
:105968000FE0264BFB630CE0254BFB6309E04FF48B
:105978000043FB6305E00023FB63012387F8423003
:1059880000BFFB6B002B21D07B695B6A1D4A32F894
:1059980013301A46FB6BB3FBF2F27B695B685B085A
:1059A8001A447B695B68B2FBF3F3BB63BB6B0F2BD9
:1059B80009D9BB6BB3F5803F05D2BB6B9AB27B6943
:1059C8001B68DA6002E0012387F842307B69012214
:1059D800A3F86A207B690122A3F868207B6900226A
:1059E8005A677B6900229A6797F842301846483709
:1059F800BD46BDE8B08F00BF004402580090D003F8
:105A080000093D00F866000880B483B000AF7860F4
:105A18007B689B6A03F00803002B0AD07B681B682D
:105A28005B6823F400417B689A6B7B681B680A43B8
:105A38005A607B689B6A03F00103002B0AD07B68DD
:105A48001B685B6823F400317B68DA6A7B681B6833
:105A58000A435A607B689B6A03F00203002B0AD052
:105A68007B681B685B6823F480317B681A6B7B68F2
:105A78001B680A435A607B689B6A03F00403002B87
:105A88000AD07B681B685B6823F480217B685A6BAB
:105A98007B681B680A435A607B689B6A03F01003A3
:105AA800002B0AD07B681B689B6823F480517B68B5
:105AB800DA6B7B681B680A439A607B689B6A03F011
:105AC8002003002B0AD07B681B689B6823F40051D5
