:020000040800F2
:1000000000000524ED0900083D0800084508000827
:100010004D080008550800085D08000800000000B1
:10002000000000000000000000000000650800085B
:100030007308000800000000810800088F0800080D
:10004000410A0008410A0008410A0008410A000864
:10005000410A0008410A0008410A0008410A000854
:10006000410A0008410A0008410A0008410A000844
:10007000410A0008410A0008410A0008410A000834
:10008000410A0008410A0008410A0008410A000824
:10009000410A0008410A0008410A0008410A000814
:1000A000410A0008410A0008410A0008410A000804
:1000B000410A0008410A0008410A0008410A0008F4
:1000C000410A0008410A0008410A0008410A0008E4
:1000D000410A0008410A0008410A0008410A0008D4
:1000E000410A0008410A000800000000410A000817
:1000F000410A0008410A0008410A0008410A0008B4
:10010000410A0008410A0008410A0008410A0008A3
:10011000410A0008410A0008410A0008410A000893
:10012000410A0008410A0008410A0008410A000883
:10013000410A0008410A0008410A0008410A000873
:1001400000000000000000000000000000000000AF
:10015000410A0008410A0008410A0008410A000853
:10016000410A0008410A0008410A0008410A000843
:10017000410A0008410A0008410A00080000000086
:10018000410A0008410A0008410A0008410A000823
:10019000410A0008410A0008410A0008410A000813
:1001A000410A0008410A0008410A00080000000056
:1001B000410A0008410A0008410A0008410A0008F3
:1001C000410A0008410A0008000000000000000089
:1001D0000000000000000000410A000800000000CC
:1001E000000000000000000000000000000000000F
:1001F0000000000000000000410A0008410A000859
:10020000410A0008410A000800000000410A0008F5
:10021000410A0008410A0008410A0008410A000892
:10022000410A000800000000410A00080000000028
:10023000410A0008410A000800000000410A0008C5
:10024000410A0008410A0008410A0008410A000862
:10025000410A0008410A0008410A0008410A000852
:10026000410A0008410A0008410A0008410A000842
:10027000410A0008410A0008410A00080000000085
:10028000410A0008410A0008410A0008410A000822
:1002900000000000410A0008410A000800000000B8
:1002A00000000000410A0008410A0008410A000855
:1002B000410A0008410A0008410A0008410A0008F2
:0C02C000410A0008410A0008410A000839
:1002CC0010B5054C237833B9044B13B10448AFF384
:1002DC0000800123237010BD4000002400000000AA
:1002EC00FC20000808B5034B1BB103490348AFF3CE
:1002FC00008008BD0000000044000024FC20000821
:10030C0080B582B000AF786039604FF40051194865
:10031C0000F04CFF0346012B06D13B681B780133E0
:10032C00DAB23B681A7021E03B681B78012B03D1D1
:10033C007B6801221A7019E03B681B78022B03D1F1
:10034C007B6802221A7011E03B681B78032B03D1E7
:10035C007B6803221A7009E03B681B78042B05D1DB
:10036C007B6804221A703B6800221A7000BF0837A1
:10037C00BD4680BD0008025880B584B000AF7860DF
:10038C007B681B78013B032B00F2B68001A252F86C
:10039C0023F000BFB1030008FB030008450400086C
:1003AC009F0400080023FB731DE0FB7B544A52F8AA
:1003BC002300FB7B534A32F813300122194600F01C
:1003CC000DFF642000F0CAFBFB7B4D4A52F8230062
:1003DC00FB7B4C4A32F813300022194600F0FEFE2B
:1003EC00FB7B0133FB73FB7B072BDED984E0002303
:1003FC00BB731DE0BB7B424A52F82300BB7B414AD6
:10040C0032F813300122194600F0E8FE962000F075
:10041C00A5FBBB7B3A4A52F82300BB7B394A32F826
:10042C0013300022194600F0D9FEBB7B0133BB739D
:10043C00BB7B072BDED95FE007237B7324E097F9A6
:10044C000D302F4A52F8230097F90D302D4A32F80F
:10045C0013300122194600F0C1FE962000F07EFBFD
:10046C0097F90D30264A52F8230097F90D30254A9A
:10047C0032F813300022194600F0B0FE97F90D3017
:10048C00DBB2013BDBB27B7397F90D30002BD6DA74
:10049C0032E000233B730EE03B7B194A52F82300F9
:1004AC003B7B184A32F813300122194600F096FEB5
:1004BC003B7B01333B733B7B072BEDD94FF49670A1
:1004CC0000F04CFB0023FB720EE0FB7A0C4A52F856
:1004DC002300FB7A0B4A32F813300022194600F045
:1004EC007DFEFB7A0133FB72FB7A072BEDD94FF4BF
:1004FC00967000F033FB00BF00BF1037BD4680BDC7
:10050C00000000242000002480B500AF00F044F966
:10051C0000F092FA00F016F800F082F8074B1B7806
:10052C00042B02D9054B00221A7004490448FFF72A
:10053C00E7FE0348FFF720FFF0E700BF5D00002453
:10054C005C00002480B59CB000AF07F124034C2262
:10055C000021184601F0A0FD3B1D20220021184669
:10056C0001F09AFD022000F053FE00233B602B4B60
:10057C009B692A4A43F440439361284B9B6903F4DB
:10058C0040433B603B6800BF244B9B6903F4005322
:10059C00B3F5005FF8D101237B624FF4A023BB625B
:1005AC000223BB640223FB6401233B6528237B6588
:1005BC000123BB650423FB6502233B660C237B668E
:1005CC000023BB660023FB6607F12403184600F0EA
:1005DC0059FE0346002B01D000F00AF93F237B6043
:1005EC000323BB604FF40063FB6000233B6140239B
:1005FC007B614023BB614FF48063FB6140233B6212
:10060C003B1D0221184601F017FA0346002B01D0BE
:10061C0000F0EEF800BF7037BD4680BD00480258B0
:10062C0080B58CB000AF07F11C0300221A605A6031
:10063C009A60DA601A61534BD3F8E030514A43F0B8
:10064C000403C2F8E0304F4BD3F8E03003F004035E
:10065C00BB61BB694B4BD3F8E0304A4A43F02003F3
:10066C00C2F8E030474BD3F8E03003F020037B6155
:10067C007B69444BD3F8E030424A43F08003C2F824
:10068C00E030404BD3F8E03003F080033B613B6932
:10069C003C4BD3F8E0303B4A43F00203C2F8E03065
:1006AC00384BD3F8E03003F00203FB60FB68354BAA
:1006BC00D3F8E030334A43F00103C2F8E030314B59
:1006CC00D3F8E03003F00103BB60BB682D4BD3F8CB
:1006DC00E0302C4A43F01003C2F8E030294BD3F839
:1006EC00E03003F010037B607B6800220F2126486A
:1006FC0000F074FD002244F2F101244800F06EFD7C
:10070C0000220221224800F069FD4FF40053FB61E6
:10071C0000233B6200237B6207F11C0319461D4832
:10072C0000F09CFB0F23FB6101233B6200237B62E7
:10073C000023BB6207F11C031946134800F08EFB23
:10074C0044F2F103FB6101233B6200237B62002333
:10075C00BB6207F11C0319460C4800F07FFB022317
:10076C00FB6101233B6200237B620023BB6207F128
:10077C001C031946064800F071FB00BF3037BD461C
:10078C0080BD00BF004402580014025800040258F7
:10079C00001002580008025880B584B000AF3B46E8
:1007AC0000221A605A609A60DA6000F0DFFA0123C6
:1007BC003B7000237B7000237B601F233B728723DD
:1007CC007B720023BB720023FB7201233B7301235A
:1007DC007B730023BB730023FB733B46184600F06E
:1007EC00FDFA042000F0DAFA00BF1037BD4680BDD8
:1007FC0080B400AF72B600BF00BFFDE780B483B019
:10080C0000AF0A4BD3F8F430084A43F00203C2F8A5
:10081C00F430064BD3F8F43003F002037B607B68B2
:10082C0000BF0C37BD465DF8047B7047004402588E
:10083C0080B400AF00BFFDE780B400AF00BFFDE7A0
:10084C0080B400AF00BFFDE780B400AF00BFFDE790
:10085C0080B400AF00BFFDE780B400AF00BFBD4661
:10086C005DF8047B704780B400AF00BFBD465DF8F7
:10087C00047B704780B400AF00BFBD465DF8047BBD
:10088C00704780B500AF00F049F900BF80BD000093
:10089C0080B400AF3E4BD3F888303D4A43F470032C
:1008AC00C2F888303B4B1B6803F00F03062B07D8AC
:1008BC00384B1B6823F00F03364A43F007031360D1
:1008CC00354B1B68344A43F001031360324B002252
:1008DC001A61314B1A683049304B13400B602D4B69
:1008EC001B6803F00803002B07D02A4B1B6823F06E
:1008FC000F03284A43F007031360274B00229A6129
:10090C00254B0022DA61244B00221A62224B244A26
:10091C009A62214B234ADA621F4B234A1A631E4BFD
:10092C0000225A631C4B204A9A631B4B0022DA6349
:10093C00194B1D4A1A64184B00225A64164B1B683B
:10094C00154A23F480231360134B00221A66124BB2
:10095C00D3F8D43003F48053002B13D10E4BD3F8BF
:10096C00D4300D4A43F48053C2F8D4300F4B43F2C9
:10097C00D2021A60084BD3F8D430074A23F48053C0
:10098C00C2F8D43000BFBD465DF8047B704700BF91
:10099C0000ED00E000200052004402587FEDF6EA22
:1009AC00000202020000FF0180020101004000521F
:1009BC0080B400AF094BDB68084A43F00203D360F4
:1009CC0000BF064B5B6803F40053002BF9D000BF4B
:1009DC0000BFBD465DF8047B704700BF004802585D
:1009EC00DFF838D0FFF7E4FFFFF752FF0C480D4952
:1009FC000D4A002302E0D458C4500433C4188C426E
:100A0C00F9D30A4A0A4C002301E013600432A242D3
:100A1C00FBD301F049FBFFF777FD7047000005247D
:100A2C0000000024400000242C2100084000002479
:100A3C0064000024FEE7000080B582B000AF032004
:100A4C0000F062F901F0AEF90246154B9B691B0AE6
:100A5C0003F00F031349CB5C03F01F0322FA03F3DB
:100A6C007B600F4B9B6903F00F030E4AD35C03F0C2
:100A7C001F037A6822FA03F30B4A13600B4A7B6854
:100A8C001360002000F014F80346002B01D0012362
:100A9C0002E0FFF7B3FE002318460837BD4680BDC1
:100AAC0000440258142100083400002430000024B3
:100ABC0080B582B000AF7860154B1B78002B01D14C
:100ACC00012321E0134B1A68114B1B7819464FF484
:100ADC007A73B3FBF1F3B2FBF3F3184600F039F978
:100AEC000346002B01D001230EE07B680F2B0AD8A4
:100AFC00002279684FF0FF3000F011F9064A7B684C
:100B0C001360002300E0012318460837BD4680BD62
:100B1C003C000024300000243800002480B400AFD6
:100B2C00064B1B781A46064B1B681344044A136089
:100B3C0000BFBD465DF8047B704700BF3C0000243D
:100B4C006000002480B400AF034B1B681846BD4600
:100B5C005DF8047B704700BF6000002480B584B052
:100B6C0000AF7860FFF7EEFFB8607B68FB60FB6856
:100B7C00B3F1FF3F05D00A4B1B781A46FB681344B0
:100B8C00FB6000BFFFF7DEFF0246BB68D31AFA68B2
:100B9C009A42F7D800BF00BF1037BD4680BD00BFDA
:100BAC003C00002480B485B000AF78607B6803F013
:100BBC000703FB600B4BDB68BB60BA684FF6FF03A7
:100BCC001340BB60FB681A02BB681A43064B134305
:100BDC00BB60044ABB68D36000BF1437BD465DF8E8
:100BEC00047B704700ED00E00000FA0580B400AF14
:100BFC00044BDB681B0A03F007031846BD465DF87F
:100C0C00047B704700ED00E080B483B000AF034676
:100C1C003960FB80B7F90630002B0ADB3B68DAB28F
:100C2C000C49B7F906301201D2B20B4483F80023F9
:100C3C000AE03B68DAB20849FB8803F00F03043B77
:100C4C001201D2B20B441A7600BF0C37BD465DF8C8
:100C5C00047B704700E100E000ED00E080B489B057
:100C6C0000AFF860B9607A60FB6803F00703FB61C2
:100C7C00FB69C3F10703042B28BF0423BB61FB6989
:100C8C000433062B02D9FB69033B00E000237B6194
:100C9C004FF0FF32BB6902FA03F3DA43BB681A4028
:100CAC007B699A404FF0FF317B6901FA03F3D9431A
:100CBC007B680B40134318462437BD465DF8047B14
:100CCC007047000080B582B000AF78607B68013B54
:100CDC00B3F1807F01D301230FE00A4A7B68013B0B
:100CEC0053600F214FF0FF30FFF78EFF054B0022B2
:100CFC009A60044B07221A60002318460837BD4639
:100D0C0080BD00BF10E000E080B582B000AF78601D
:100D1C007868FFF747FF00BF0837BD4680BD80B538
:100D2C0086B000AF0346B9607A60FB81FFF75EFFC7
:100D3C0078617A68B9687869FFF790FF0246B7F96D
:100D4C000E3011461846FFF75FFF00BF1837BD463F
:100D5C0080BD80B582B000AF78607868FFF7B2FFD5
:100D6C00034618460837BD4680BD000080B400AF6E
:100D7C00BFF35F8F00BF074B5B6A064A23F48033D7
:100D8C005362054B00225A6000BFBD465DF8047BE0
:100D9C00704700BF00ED00E090ED00E080B483B040
:100DAC0000AF78600B4A7B6843F0010353600A4B39
:100DBC005B6A094A43F480335362BFF34F8F00BF21
:100DCC00BFF36F8F00BF00BF0C37BD465DF8047BCF
:100DDC00704700BF90ED00E000ED00E080B483B000
:100DEC0000AF78607B685A781B4B9A601A4B1B6972
:100DFC00194A23F001031361174A7B685B68D360BF
:100E0C007B681B7B1A077B68DB7A1B061A437B68A3
:100E1C009B7ADB041A437B685B7B9B041A437B68DD
:100E2C009B7B5B041A437B68DB7B1B041A437B684C
:100E3C005B7A1B021A437B681B7A5B0013437A684C
:100E4C0012781146044A0B43136100BF0C37BD46A0
:100E5C005DF8047B704700BF90ED00E080B489B072
:100E6C0000AF786039600023FB61864B7B618CE1BD
:100E7C003B681A680121FB6901FA03F313403B61DB
:100E8C003B69002B00F07E813B685B6803F0030339
:100E9C00012B05D03B685B6803F00303022B30D1B8
:100EAC007B689B68BB61FB695B00032202FA03F35E
:100EBC00DB43BA691340BB613B68DA68FB695B00D2
:100ECC0002FA03F3BA691343BB617B68BA699A608F
:100EDC007B685B68BB610122FB6902FA03F3DB43AD
:100EEC00BA691340BB613B685B681B0903F00102E4
:100EFC00FB6902FA03F3BA691343BB617B68BA69F5
:100F0C005A603B685B6803F00303032B17D07B68C4
:100F1C00DB68BB61FB695B00032202FA03F3DB4372
:100F2C00BA691340BB613B689A68FB695B0002FAC3
:100F3C0003F3BA691343BB617B68BA69DA603B6837
:100F4C005B6803F00303022B23D1FB69DA087B688F
:100F5C00083253F82230BB61FB6903F007039B0096
:100F6C000F2202FA03F3DB43BA691340BB613B68FF
:100F7C001A69FB6903F007039B0002FA03F3BA69D1
:100F8C001343BB61FB69DA087B680832B96943F823
:100F9C0022107B681B68BB61FB695B00032202FAB1
:100FAC0003F3DB43BA691340BB613B685B6803F036
:100FBC000302FB695B0002FA03F3BA691343BB61DA
:100FCC007B68BA691A603B685B6803F44033002B9A
:100FDC0000F0D8802C4BD3F8F4302B4A43F00203AA
:100FEC00C2F8F430284BD3F8F43003F00203FB6062
:100FFC00FB68264AFB699B08023352F82330BB611D
:10100C00FB6903F003039B000F2202FA03F3DB439B
:10101C00BA691340BB617B681D4A93424AD07B6816
:10102C001C4A93422BD07B681B4A934225D07B6889
:10103C001A4A93421FD07B68194A934219D07B6895
:10104C00184A934213D07B68174A93420DD07B68A1
:10105C00164A934207D07B68154A934201D1092363
:10106C0029E00A2327E0072325E0062323E00523B4
:10107C0021E004231FE003231DE002231BE00123D6
:10108C0019E000BF800000580044025800040058CA
:10109C00000002580004025800080258000C0258C4
:1010AC00001002580014025800180258001C025874
:1010BC00002402580023FA6902F0030292009340C4
:1010CC00BA691343BB613849FB699B080233BA699F
:1010DC0041F823204FF0B0431B68BB613B69DB43F5
:1010EC00BA691340BB613B685B6803F48013002B47
:1010FC0003D0BA693B691343BB614FF0B042BB6983
:10110C0013604FF0B0435B68BB613B69DB43BA696A
:10111C001340BB613B685B6803F40013002B03D0E6
:10112C00BA693B691343BB614FF0B042BB69536072
:10113C007B695B68BB613B69DB43BA691340BB618C
:10114C003B685B6803F40033002B03D0BA693B693E
:10115C001343BB617B69BA695A607B691B68BB61CD
:10116C003B69DB43BA691340BB613B685B6803F4C2
:10117C008033002B03D0BA693B691343BB617B6995
:10118C00BA691A60FB690133FB613B681A68FB6939
:10119C0022FA03F3002B7FF46BAE00BF00BF2437A1
:1011AC00BD465DF8047B70470004005880B485B0E0
:1011BC0000AF78600B467B807B681A697B88134094
:1011CC00002B02D00123FB7301E00023FB73FB7B9C
:1011DC0018461437BD465DF8047B704780B483B065
:1011EC0000AF78600B467B8013467B707B78002BBE
:1011FC0003D07A887B689A6103E07B881A047B6849
:10120C009A6100BF0C37BD465DF8047B7047000047
:10121C0080B584B000AF7860194BDB6803F0040331
:10122C00042B0AD0164BDB6803F007037A689A424A
:10123C0001D001231FE000231DE0114BDB6823F0DC
:10124C0007020F497B681343CB60FFF77BFCF86008
:10125C0009E0FFF777FC0246FB68D31AB3F57A7FF7
:10126C0001D9012307E0064B5B6803F40053B3F587
:10127C00005FEED1002318461037BD4680BD00BF7D
:10128C000048025880B58CB000AF78607B68002BAA
:10129C0001D10123C8E37B681B6803F00103002B19
:1012AC0000F08780884B1B6903F03803FB62864B88
:1012BC009B6ABB62FB6A102B07D0FB6A182B10D100
:1012CC00BB6A03F00303022B0BD17F4B1B6803F4A7
:1012DC000033002B6CD07B685B68002B68D101233A
:1012EC00A2E37B685B68B3F5803F06D1764B1B6845
:1012FC00754A43F4803313602EE07B685B68002BE7
:10130C000CD1714B1B68704A23F4803313606E4B05
:10131C001B686D4A23F4802313601DE07B685B68B7
:10132C00B3F5A02F0CD1684B1B68674A43F480239C
:10133C001360654B1B68644A43F4803313600BE005
:10134C00614B1B68604A23F4803313605E4B1B684F
:10135C005D4A23F4802313607B685B68002B13D0F9
:10136C00FFF7F0FB786208E0FFF7ECFB02467B6AC4
:10137C00D31A642B01D9032356E3534B1B6803F494
:10138C000033002BF0D014E0FFF7DCFB786208E0B0
:10139C00FFF7D8FB02467B6AD31A642B01D90323CF
:1013AC0042E3494B1B6803F40033002BF0D100E0FF
:1013BC0000BF7B681B6803F00203002B00F08C80DD
:1013CC00414B1B6903F038033B623F4B9B6AFB614B
:1013DC003B6A002B07D03B6A182B37D1FB6903F013
:1013EC000303002B32D1384B1B6803F00403002B92
:1013FC0005D07B68DB68002B01D1012314E3324B51
:10140C001B6823F019027B68DB682F4913430B60C0
:10141C00FFF798FB786208E0FFF794FB02467B6AC3
:10142C00D31A022B01D90323FEE2274B1B6803F0CE
:10143C000403002BF0D0244B5B6823F0FE427B6846
:10144C001B691B06204913434B6045E07B68DB6836
:10145C00002B26D01C4B1B6823F019027B68DB6821
:10146C00194913430B60FFF76DFB786208E0FFF737
:10147C0069FB02467B6AD31A022B01D90323D3E200
:10148C00114B1B6803F00403002BF0D00E4B5B6870
:10149C0023F0FE427B681B691B060B4913434B6010
:1014AC001AE0094B1B68084A23F001031360FFF78D
:1014BC0049FB78620AE0FFF745FB02467B6AD31AC8
:1014CC00022B03D90323AFE200440258964B1B684E
:1014DC0003F00403002BEED17B681B6803F01003B0
:1014EC00002B6AD0904B1B6903F03803BB618E4B09
:1014FC009B6A7B61BB69082B07D0BB69182B1BD17E
:10150C007B6903F00303012B16D1874B1B6803F493
:10151C008073002B05D07B68DB69802B01D0012305
:10152C0082E2814BDB6823F07C527B681B6A1B06D2
:10153C007D491343CB6040E07B68DB69002B23D0F3
:10154C00794B1B68784A43F080031360FFF7FAFA73
:10155C00786208E0FFF7F6FA02467B6AD31A022B90
:10156C0001D9032360E2704B1B6803F48073002BDA
:10157C00F0D06D4BDB6823F07C527B681B6A1B063A
:10158C0069491343CB6018E0674B1B68664A23F02C
:10159C0080031360FFF7D6FA786208E0FFF7D2FAFF
:1015AC0002467B6AD31A022B01D903233CE25E4B21
:1015BC001B6803F48073002BF0D17B681B6803F06D
:1015CC000803002B36D07B685B69002B19D0564B77
:1015DC005B6F554A43F001035367FFF7B3FA786228
:1015EC0008E0FFF7AFFA02467B6AD31A022B01D947
:1015FC00032319E24C4B5B6F03F00203002BF0D07A
:10160C0018E0494B5B6F484A23F001035367FFF71F
:10161C0099FA786208E0FFF795FA02467B6AD31ACA
:10162C00022B01D90323FFE13F4B5B6F03F0020355
:10163C00002BF0D17B681B6803F02003002B36D005
:10164C007B689B69002B19D0374B1B68364A43F4D7
:10165C0080531360FFF776FA786208E0FFF772FAAE
:10166C0002467B6AD31A022B01D90323DCE12E4BF1
:10167C001B6803F40053002BF0D018E02A4B1B68B6
:10168C00294A23F480531360FFF75CFA786208E070
:10169C00FFF758FA02467B6AD31A022B01D90323AF
:1016AC00C2E1214B1B6803F40053002BF0D17B6883
:1016BC001B6803F00403002B00F086801B4B1B6897
:1016CC001A4A43F480731360FFF73CFA786208E01F
:1016DC00FFF738FA02467B6AD31A642B01D903232D
:1016EC00A2E1124B1B6803F48073002BF0D07B68D3
:1016FC009B68012B06D10C4B1B6F0B4A43F001036B
:10170C00136732E07B689B68002B11D1064B1B6F73
:10171C00054A23F001031367034B1B6F024A23F0A6
:10172C000403136721E000BF00440258004802582C
:10173C007B689B68052B0CD1834B1B6F824A43F053
:10174C0004031367804B1B6F7F4A43F0010313673D
:10175C000BE07D4B1B6F7C4A23F0010313677A4B24
:10176C001B6F794A23F0040313677B689B68002B7B
:10177C0015D0FFF7E7F978620AE0FFF7E3F90246C4
:10178C007B6AD31A41F28832934201D903234BE18D
:10179C006D4B1B6F03F00203002BEED014E0FFF730
:1017AC00D1F978620AE0FFF7CDF902467B6AD31AC9
:1017BC0041F28832934201D9032335E1624B1B6F0E
:1017CC0003F00203002BEED17B685B6A002B00F068
:1017DC002A815D4B1B6903F03803182B00F0BA808B
:1017EC007B685B6A022B40F09580574B1B68564A0E
:1017FC0023F080731360FFF7A5F9786208E0FFF718
:10180C00A1F902467B6AD31A022B01D903230BE1FF
:10181C004D4B1B6803F00073002BF0D14A4B9A6AB6
:10182C004A4B13407A68916A7A68D26A12010A4369
:10183C00454913438B627B681B6B013BC3F3080266
:10184C007B685B6B013B5B029BB21A437B689B6BB7
:10185C00013B1B0403F4FE031A437B68DB6B013B67
:10186C001B0603F0FE43384913430B63364BDB6A0C
:10187C00354A23F00103D362334B5A6B344B13407C
:10188C007A68926CD200304913434B632E4BDB6A5F
:10189C0023F00C027B681B6C2B491343CB622A4B45
:1018AC00DB6A23F002027B685B6C27491343CB6233
:1018BC00254BDB6A244A43F48033D362224BDB6A28
:1018CC00214A43F40033D3621F4BDB6A1E4A43F4B4
:1018DC008023D3621C4BDB6A1B4A43F00103D362A7
:1018EC00194B1B68184A43F080731360FFF72AF9F1
:1018FC00786208E0FFF726F902467B6AD31A022BBE
:10190C0001D9032390E0104B1B6803F00073002BEC
:10191C00F0D088E00C4B1B680B4A23F080731360EB
:10192C00FFF710F9786208E0FFF70CF902467B6AC2
:10193C00D31A022B01D9032376E0034B1B6803F067
:10194C000073002BF0D16EE0004402580CFCFFFF3A
:10195C000700FFFF364B9B6A3B61354B1B6BFB60F3
:10196C007B685B6A012B31D03B6903F003027B6817
:10197C009B6A9A422AD13B691B0903F03F027B68A0
:10198C00DB6A9A4222D1FB68C3F308027B681B6BAB
:10199C00013B9A421AD1FB685B0A03F07F027B6819
:1019AC005B6B013B9A4211D1FB681B0C03F07F026D
:1019BC007B689B6B013B9A4208D1FB681B0E03F0C2
:1019CC007F027B68DB6B013B9A4201D001232BE049
:1019DC00174B5B6BDB08C3F30C033B617B689B6CA5
:1019EC003A699A421FD0124BDB6A114A23F0010369
:1019FC00D362FFF7A7F8786200BFFFF7A3F802469F
:101A0C007B6A9342F9D00A4B5A6B0A4B13407A68A3
:101A1C00926CD200064913434B63054BDB6A044AB4
:101A2C0043F00103D362002318463037BD4680BD16
:101A3C00004402580700FFFF80B586B000AF786005
:101A4C0039607B68002B01D101239CE18A4B1B6818
:101A5C0003F00F033A689A4210D9874B1B6823F0A6
:101A6C000F0285493B6813430B60834B1B6803F0E3
:101A7C000F033A689A4201D0012384E17B681B680A
:101A8C0003F00403002B10D07B681A697B4B9B6915
:101A9C0003F070039A4208D9784B9B6923F07002CB
:101AAC007B681B69754913438B617B681B6803F06A
:101ABC000803002B10D07B685A69704BDB6903F06C
:101ACC0070039A4208D96D4BDB6923F070027B6876
:101ADC005B696A491343CB617B681B6803F0100395
:101AEC00002B10D07B689A69644BDB6903F4E063CC
:101AFC009A4208D9614BDB6923F4E0627B689B69ED
:101B0C005E491343CB617B681B6803F02003002BF9
:101B1C0010D07B68DA69594B1B6A03F070039A4248
:101B2C0008D9564B1B6A23F070027B68DB6953495A
:101B3C0013430B627B681B6803F00203002B10D06D
:101B4C007B68DA684D4B9B6903F00F039A4208D906
:101B5C004A4B9B6923F00F027B68DB6847491343B0
:101B6C008B617B681B6803F00103002B55D0434B42
:101B7C009B6923F470627B689B68404913438B61BB
:101B8C007B685B68022B07D13C4B1B6803F400336A
:101B9C00002B21D10123F6E07B685B68032B07D176
:101BAC00364B1B6803F00073002B15D10123EAE0C0
:101BBC007B685B68012B07D1304B1B6803F4807387
:101BCC00002B09D10123DEE02C4B1B6803F004032E
:101BDC00002B01D10123D6E0284B1B6923F007020F
:101BEC007B685B68254913430B61FEF7ABFF78619B
:101BFC000AE0FEF7A7FF02467B69D31A41F288324E
:101C0C00934201D90323BEE01C4B1B6903F038023D
:101C1C007B685B68DB009A42EBD17B681B6803F046
:101C2C000203002B10D07B68DA68144B9B6903F01D
:101C3C000F039A4208D2114B9B6923F00F027B6869
:101C4C00DB680E4913438B610B4B1B6803F00F03CE
:101C5C003A689A4214D2084B1B6823F00F020649CB
:101C6C003B6813430B60044B1B6803F00F033A688B
:101C7C009A4205D0012386E000200052004402580D
:101C8C007B681B6803F00403002B10D07B681A6977
:101C9C003F4B9B6903F070039A4208D23C4B9B6903
:101CAC0023F070027B681B69394913438B617B6895
:101CBC001B6803F00803002B10D07B685A69344B67
:101CCC00DB6903F070039A4208D2314BDB6923F0D5
:101CDC0070027B685B692E491343CB617B681B6880
:101CEC0003F01003002B10D07B689A69284BDB693A
:101CFC0003F4E0639A4208D2254BDB6923F4E062DB
:101D0C007B689B6922491343CB617B681B6803F09A
:101D1C002003002B10D07B68DA691D4B1B6A03F083
:101D2C0070039A4208D21A4B1B6A23F070027B682C
:101D3C00DB69174913430B6200F034F80246144B6D
:101D4C009B691B0A03F00F031249CB5C03F01F03C2
:101D5C0022FA03F33B610E4B9B6903F00F030D4A10
:101D6C00D35C03F01F033A6922FA03F30A4A1360A7
:101D7C000A4A3B6913600A4B1B681846FEF798FE2B
:101D8C000346FB73FB7B18461837BD4680BD00BF6E
:101D9C0000440258142100083400002430000024B0
:101DAC003800002480B489B000AFB34B1B6903F03A
:101DBC003803182B00F2558101A252F823F000BF12
:101DCC00311E00086F2000086F2000086F200008EB
:101DDC006F2000086F2000086F2000086F2000089B
:101DEC00571E00086F2000086F2000086F200008A5
:101DFC006F2000086F2000086F2000086F2000087B
:101E0C005D1E00086F2000086F2000086F2000087E
:101E1C006F2000086F2000086F2000086F2000085A
:101E2C00631E0008944B1B6803F02003002B09D0A1
:101E3C00914B1B68DB0803F00303904A22FA03F36F
:101E4C00BB6111E18D4BBB610EE18D4BBB610BE1B5
:101E5C008C4BBB6108E1884B9B6A03F003037B61ED
:101E6C00854B9B6A1B0903F03F033B61824BDB6A8A
:101E7C0003F00103FB60804B5B6BDB08C3F30C03CB
:101E8C00FA6802FB03F307EE903AF8EE677AC7EDB7
:101E9C00027A3B69002B00F0E1807B69022B00F099
:101EAC0083807B69022B00F2A1807B69002B03D01D
:101EBC007B69012B56D099E06F4B1B6803F0200314
:101ECC00002B2DD06C4B1B68DB0803F003036B4A13
:101EDC0022FA03F37B607B6807EE903AF8EE676AB0
:101EEC003B6907EE903AF8EE677A86EEA77A624B7A
:101EFC001B6BC3F3080307EE903AF8EE676A97ED95
:101F0C00026ADFED615AC6EE257A76EEA77AF7EE15
:101F1C00006A77EEA67A67EE277AC7ED077A87E034
:101F2C003B6907EE903AF8EE677ADFED586A86EE79
:101F3C00A77A514B1B6BC3F3080307EE903AF8EEEC
:101F4C00676A97ED026ADFED505AC6EE257A76EE97
:101F5C00A77AF7EE006A77EEA67A67EE277AC7EDD6
:101F6C00077A65E03B6907EE903AF8EE677ADFEDA9
:101F7C00486A86EEA77A404B1B6BC3F3080307EE47
:101F8C00903AF8EE676A97ED026ADFED3F5AC6EEBB
:101F9C00257A76EEA77AF7EE006A77EEA67A67EEE8
:101FAC00277AC7ED077A43E03B6907EE903AF8EEE3
:101FBC00677ADFED386A86EEA77A2F4B1B6BC3F37B
:101FCC00080307EE903AF8EE676A97ED026ADFEDC8
:101FDC002E5AC6EE257A76EEA77AF7EE006A77EEE1
:101FEC00A67A67EE277AC7ED077A21E03B6907EE00
:101FFC00903AF8EE677ADFED266A86EEA77A1E4BEA
:10200C001B6BC3F3080307EE903AF8EE676A97ED83
:10201C00026ADFED1D5AC6EE257A76EEA77AF7EE48
:10202C00006A77EEA67A67EE277AC7ED077A00BFCB
:10203C00114B1B6B5B0A03F07F0301333B603B6866
:10204C0007EE903AB8EE677AD7ED076AC6EE877A54
:10205C00FCEEE77A17EE903ABB6105E00023BB611A
:10206C0002E0074BBB6100BFBB6918462437BD4675
:10207C005DF8047B704700BF004402580090D00309
:10208C0000093D0000127A00000000460024744C48
:10209C000024744A0024F44A02440346934200D1BB
:1020AC00704703F8011BF9E770B50D4D0D4C641B1F
:1020BC00A4100026A64209D10B4D0C4C00F018F8C8
:1020CC00641BA4100026A64205D170BD55F8043B34
:1020DC0098470136EEE755F8043B98470136F2E78E
:1020EC0024210008242100082421000828210008AC
:1020FC00F8B500BFF8BC08BC9E467047F8B500BFE9
:08210C00F8BC08BC9E467047B8
:102114000000000001020304010203040607080989
:04212400F1020008BC
:04212800CD020008DC
:10212C0000140258001402580014025800140258EB
:10213C00000402580004025800040258000402581B
:10214C000100020004000800100020004000800084
:10215C000090D0030090D00310000000010000009C
:04000005080009EDF9
:00000001FF
